{
  "contractName": "Escrow",
  "abi": [
    {
      "anonymous": false,
      "inputs": [],
      "name": "createdBasket",
      "type": "event"
    },
    {
      "anonymous": false,
      "inputs": [
        {
          "indexed": true,
          "internalType": "address",
          "name": "owner",
          "type": "address"
        }
      ],
      "name": "setAgreed",
      "type": "event"
    },
    {
      "anonymous": false,
      "inputs": [
        {
          "indexed": true,
          "internalType": "address",
          "name": "caller",
          "type": "address"
        },
        {
          "indexed": true,
          "internalType": "address",
          "name": "partner",
          "type": "address"
        }
      ],
      "name": "successfulCancel",
      "type": "event"
    },
    {
      "anonymous": false,
      "inputs": [
        {
          "indexed": true,
          "internalType": "address",
          "name": "owner",
          "type": "address"
        },
        {
          "indexed": true,
          "internalType": "address",
          "name": "tokenAddress",
          "type": "address"
        },
        {
          "indexed": true,
          "internalType": "uint256",
          "name": "tokenID",
          "type": "uint256"
        }
      ],
      "name": "successfulDeposit",
      "type": "event"
    },
    {
      "inputs": [
        {
          "internalType": "address",
          "name": "",
          "type": "address"
        },
        {
          "internalType": "address",
          "name": "",
          "type": "address"
        },
        {
          "internalType": "uint256",
          "name": "",
          "type": "uint256"
        },
        {
          "internalType": "bytes",
          "name": "",
          "type": "bytes"
        }
      ],
      "name": "onERC721Received",
      "outputs": [
        {
          "internalType": "bytes4",
          "name": "",
          "type": "bytes4"
        }
      ],
      "stateMutability": "nonpayable",
      "type": "function"
    },
    {
      "inputs": [],
      "name": "hasBasket",
      "outputs": [
        {
          "internalType": "bool",
          "name": "",
          "type": "bool"
        }
      ],
      "stateMutability": "view",
      "type": "function",
      "constant": true
    },
    {
      "inputs": [
        {
          "internalType": "address",
          "name": "owner1",
          "type": "address"
        },
        {
          "internalType": "address",
          "name": "owner2",
          "type": "address"
        }
      ],
      "name": "createBaskets",
      "outputs": [],
      "stateMutability": "nonpayable",
      "type": "function"
    },
    {
      "inputs": [
        {
          "internalType": "address",
          "name": "tokenAddress",
          "type": "address"
        },
        {
          "internalType": "uint256",
          "name": "tokenID",
          "type": "uint256"
        }
      ],
      "name": "deposit",
      "outputs": [],
      "stateMutability": "nonpayable",
      "type": "function"
    },
    {
      "inputs": [],
      "name": "cancel",
      "outputs": [],
      "stateMutability": "nonpayable",
      "type": "function"
    },
    {
      "inputs": [],
      "name": "agree",
      "outputs": [],
      "stateMutability": "nonpayable",
      "type": "function"
    },
    {
      "inputs": [
        {
          "internalType": "uint256",
          "name": "item",
          "type": "uint256"
        }
      ],
      "name": "viewMyBasket",
      "outputs": [
        {
          "internalType": "address",
          "name": "tokenAddress",
          "type": "address"
        },
        {
          "internalType": "uint256",
          "name": "tokenID",
          "type": "uint256"
        }
      ],
      "stateMutability": "view",
      "type": "function",
      "constant": true
    },
    {
      "inputs": [
        {
          "internalType": "uint256",
          "name": "item",
          "type": "uint256"
        }
      ],
      "name": "viewPartnerBasket",
      "outputs": [
        {
          "internalType": "address",
          "name": "tokenAddress",
          "type": "address"
        },
        {
          "internalType": "uint256",
          "name": "tokenID",
          "type": "uint256"
        }
      ],
      "stateMutability": "view",
      "type": "function",
      "constant": true
    },
    {
      "inputs": [],
      "name": "viewNumberOfDepositedTokens",
      "outputs": [
        {
          "internalType": "uint256",
          "name": "nrTokensCaller",
          "type": "uint256"
        },
        {
          "internalType": "uint256",
          "name": "nrTokensParter",
          "type": "uint256"
        }
      ],
      "stateMutability": "view",
      "type": "function",
      "constant": true
    },
    {
      "inputs": [],
      "name": "viewState",
      "outputs": [
        {
          "internalType": "address",
          "name": "owner1",
          "type": "address"
        },
        {
          "internalType": "address",
          "name": "owner2",
          "type": "address"
        },
        {
          "internalType": "bool",
          "name": "agree1",
          "type": "bool"
        },
        {
          "internalType": "bool",
          "name": "agree2",
          "type": "bool"
        }
      ],
      "stateMutability": "view",
      "type": "function",
      "constant": true
    }
  ],
  "bytecode": "0x608060405234801561001057600080fd5b506122b0806100206000396000f3fe608060405234801561001057600080fd5b506004361061009e5760003560e01c80638e787126116100665780638e7871261461015d5780638fae60a51461017b578063997ccfdd14610185578063ea0569b7146101b6578063ea8a1af0146101d55761009e565b806312fe2bee146100a3578063150b7a02146100bf57806315d60039146100ef57806347e7ef2414610120578063801f39611461013c575b600080fd5b6100bd60048036038101906100b89190611adb565b6101df565b005b6100d960048036038101906100d49190611b17565b6104a7565b6040516100e69190611f71565b60405180910390f35b61010960048036038101906101049190611bce565b6104bb565b604051610117929190611f2d565b60405180910390f35b61013a60048036038101906101359190611b92565b610541565b005b610144610c3f565b6040516101549493929190611eb1565b60405180910390f35b610165610df8565b6040516101729190611f56565b60405180910390f35b610183610e8e565b005b61019f600480360381019061019a9190611bce565b61101a565b6040516101ad929190611f2d565b60405180910390f35b6101be611041565b6040516101cc929190612087565b60405180910390f35b6101dd611142565b005b600073ffffffffffffffffffffffffffffffffffffffff16600160008473ffffffffffffffffffffffffffffffffffffffff1673ffffffffffffffffffffffffffffffffffffffff16815260200190815260200160002060009054906101000a900473ffffffffffffffffffffffffffffffffffffffff1673ffffffffffffffffffffffffffffffffffffffff16146102ad576040517f08c379a00000000000000000000000000000000000000000000000000000000081526004016102a49061204c565b60405180910390fd5b600073ffffffffffffffffffffffffffffffffffffffff16600160008373ffffffffffffffffffffffffffffffffffffffff1673ffffffffffffffffffffffffffffffffffffffff16815260200190815260200160002060009054906101000a900473ffffffffffffffffffffffffffffffffffffffff1673ffffffffffffffffffffffffffffffffffffffff161461037b576040517f08c379a000000000000000000000000000000000000000000000000000000000815260040161037290611fcc565b60405180910390fd5b80600160008473ffffffffffffffffffffffffffffffffffffffff1673ffffffffffffffffffffffffffffffffffffffff16815260200190815260200160002060006101000a81548173ffffffffffffffffffffffffffffffffffffffff021916908373ffffffffffffffffffffffffffffffffffffffff16021790555081600160008373ffffffffffffffffffffffffffffffffffffffff1673ffffffffffffffffffffffffffffffffffffffff16815260200190815260200160002060006101000a81548173ffffffffffffffffffffffffffffffffffffffff021916908373ffffffffffffffffffffffffffffffffffffffff1602179055507f3ae874e150f655b3cf1eb44d32ce340dead6f63abe726d32873d9f977a68a19560405160405180910390a15050565b600063150b7a0260e01b9050949350505050565b6000806104c6610df8565b6104cf57600080fd5b610538600160003373ffffffffffffffffffffffffffffffffffffffff1673ffffffffffffffffffffffffffffffffffffffff16815260200190815260200160002060009054906101000a900473ffffffffffffffffffffffffffffffffffffffff168461123a565b91509150915091565b610549610df8565b61055257600080fd5b60008290503373ffffffffffffffffffffffffffffffffffffffff168173ffffffffffffffffffffffffffffffffffffffff16636352211e846040518263ffffffff1660e01b81526004016105a7919061206c565b60206040518083038186803b1580156105bf57600080fd5b505afa1580156105d3573d6000803e3d6000fd5b505050506040513d601f19601f820116820180604052508101906105f79190611ab2565b73ffffffffffffffffffffffffffffffffffffffff161461064d576040517f08c379a00000000000000000000000000000000000000000000000000000000081526004016106449061202c565b60405180910390fd5b3073ffffffffffffffffffffffffffffffffffffffff168173ffffffffffffffffffffffffffffffffffffffff1663081812fc846040518263ffffffff1660e01b815260040161069d919061206c565b60206040518083038186803b1580156106b557600080fd5b505afa1580156106c9573d6000803e3d6000fd5b505050506040513d601f19601f820116820180604052508101906106ed9190611ab2565b73ffffffffffffffffffffffffffffffffffffffff1614610743576040517f08c379a000000000000000000000000000000000000000000000000000000000815260040161073a90611f8c565b60405180910390fd5b8073ffffffffffffffffffffffffffffffffffffffff166342842e0e3330856040518463ffffffff1660e01b815260040161078093929190611ef6565b600060405180830381600087803b15801561079a57600080fd5b505af11580156107ae573d6000803e3d6000fd5b505050503073ffffffffffffffffffffffffffffffffffffffff168173ffffffffffffffffffffffffffffffffffffffff16636352211e846040518263ffffffff1660e01b8152600401610802919061206c565b60206040518083038186803b15801561081a57600080fd5b505afa15801561082e573d6000803e3d6000fd5b505050506040513d601f19601f820116820180604052508101906108529190611ab2565b73ffffffffffffffffffffffffffffffffffffffff16146108a8576040517f08c379a000000000000000000000000000000000000000000000000000000000815260040161089f9061200c565b60405180910390fd5b6000600360003373ffffffffffffffffffffffffffffffffffffffff1673ffffffffffffffffffffffffffffffffffffffff16815260200190815260200160002060006101000a81548160ff021916908315150217905550600060036000600160003373ffffffffffffffffffffffffffffffffffffffff1673ffffffffffffffffffffffffffffffffffffffff16815260200190815260200160002060009054906101000a900473ffffffffffffffffffffffffffffffffffffffff1673ffffffffffffffffffffffffffffffffffffffff1673ffffffffffffffffffffffffffffffffffffffff16815260200190815260200160002060006101000a81548160ff021916908315150217905550600360003373ffffffffffffffffffffffffffffffffffffffff1673ffffffffffffffffffffffffffffffffffffffff16815260200190815260200160002060009054906101000a900460ff16158015610aba575060036000600160003373ffffffffffffffffffffffffffffffffffffffff1673ffffffffffffffffffffffffffffffffffffffff16815260200190815260200160002060009054906101000a900473ffffffffffffffffffffffffffffffffffffffff1673ffffffffffffffffffffffffffffffffffffffff1673ffffffffffffffffffffffffffffffffffffffff16815260200190815260200160002060009054906101000a900460ff16155b610af9576040517f08c379a0000000000000000000000000000000000000000000000000000000008152600401610af090611fec565b60405180910390fd5b600260003373ffffffffffffffffffffffffffffffffffffffff1673ffffffffffffffffffffffffffffffffffffffff16815260200190815260200160002060405180604001604052808573ffffffffffffffffffffffffffffffffffffffff16815260200184815250908060018154018082558091505060019003906000526020600020906002020160009091909190915060008201518160000160006101000a81548173ffffffffffffffffffffffffffffffffffffffff021916908373ffffffffffffffffffffffffffffffffffffffff160217905550602082015181600101555050818373ffffffffffffffffffffffffffffffffffffffff163373ffffffffffffffffffffffffffffffffffffffff167f1c0b0f1a47c177565be3a88b20d70b9e3469d8630a3ce147ac3ea5d0faecdb7460405160405180910390a4505050565b600080600080600073ffffffffffffffffffffffffffffffffffffffff16600160003373ffffffffffffffffffffffffffffffffffffffff1673ffffffffffffffffffffffffffffffffffffffff16815260200190815260200160002060009054906101000a900473ffffffffffffffffffffffffffffffffffffffff1673ffffffffffffffffffffffffffffffffffffffff161415610cee5760009350600092506000915060009050610df2565b339350600160003373ffffffffffffffffffffffffffffffffffffffff1673ffffffffffffffffffffffffffffffffffffffff16815260200190815260200160002060009054906101000a900473ffffffffffffffffffffffffffffffffffffffff169250600360003373ffffffffffffffffffffffffffffffffffffffff1673ffffffffffffffffffffffffffffffffffffffff16815260200190815260200160002060009054906101000a900460ff169150600360008473ffffffffffffffffffffffffffffffffffffffff1673ffffffffffffffffffffffffffffffffffffffff16815260200190815260200160002060009054906101000a900460ff1690505b90919293565b60008073ffffffffffffffffffffffffffffffffffffffff16600160003373ffffffffffffffffffffffffffffffffffffffff1673ffffffffffffffffffffffffffffffffffffffff16815260200190815260200160002060009054906101000a900473ffffffffffffffffffffffffffffffffffffffff1673ffffffffffffffffffffffffffffffffffffffff161415905090565b610e96610df8565b610e9f57600080fd5b6001600360003373ffffffffffffffffffffffffffffffffffffffff1673ffffffffffffffffffffffffffffffffffffffff16815260200190815260200160002060006101000a81548160ff0219169083151502179055503373ffffffffffffffffffffffffffffffffffffffff167f079247e98bd2a29ad577bfa97ea8d6011d1ae06cf9d8c71fbcb24b71f58f7bb460405160405180910390a26000600160003373ffffffffffffffffffffffffffffffffffffffff1673ffffffffffffffffffffffffffffffffffffffff16815260200190815260200160002060009054906101000a900473ffffffffffffffffffffffffffffffffffffffff169050600360008273ffffffffffffffffffffffffffffffffffffffff1673ffffffffffffffffffffffffffffffffffffffff16815260200190815260200160002060009054906101000a900460ff161561101757610ffa33826113d2565b61100481336113d2565b61100d336117d2565b611016816117d2565b5b50565b600080611025610df8565b61102e57600080fd5b611038338461123a565b91509150915091565b60008061104c610df8565b61105557600080fd5b600260003373ffffffffffffffffffffffffffffffffffffffff1673ffffffffffffffffffffffffffffffffffffffff16815260200190815260200160002080549050915060026000600160003373ffffffffffffffffffffffffffffffffffffffff1673ffffffffffffffffffffffffffffffffffffffff16815260200190815260200160002060009054906101000a900473ffffffffffffffffffffffffffffffffffffffff1673ffffffffffffffffffffffffffffffffffffffff1673ffffffffffffffffffffffffffffffffffffffff1681526020019081526020016000208054905090509091565b61114a610df8565b61115357600080fd5b6000600160003373ffffffffffffffffffffffffffffffffffffffff1673ffffffffffffffffffffffffffffffffffffffff16815260200190815260200160002060009054906101000a900473ffffffffffffffffffffffffffffffffffffffff1690506111c133336113d2565b6111cb81826113d2565b6111d4336117d2565b6111dd816117d2565b8073ffffffffffffffffffffffffffffffffffffffff163373ffffffffffffffffffffffffffffffffffffffff167fcbab4befe43e2080c1b596424d0c2a68d020cbd6fb9d9b47974dbb9c1515834b60405160405180910390a350565b600080600260008573ffffffffffffffffffffffffffffffffffffffff1673ffffffffffffffffffffffffffffffffffffffff168152602001908152602001600020805490508310156113c257600260008573ffffffffffffffffffffffffffffffffffffffff1673ffffffffffffffffffffffffffffffffffffffff16815260200190815260200160002083815481106112fe577f4e487b7100000000000000000000000000000000000000000000000000000000600052603260045260246000fd5b906000526020600020906002020160000160009054906101000a900473ffffffffffffffffffffffffffffffffffffffff169150600260008573ffffffffffffffffffffffffffffffffffffffff1673ffffffffffffffffffffffffffffffffffffffff16815260200190815260200160002083815481106113a9577f4e487b7100000000000000000000000000000000000000000000000000000000600052603260045260246000fd5b90600052602060002090600202016001015490506113cb565b60009150600090505b9250929050565b60005b600260008373ffffffffffffffffffffffffffffffffffffffff1673ffffffffffffffffffffffffffffffffffffffff168152602001908152602001600020805490508110156117cd576000600260008473ffffffffffffffffffffffffffffffffffffffff1673ffffffffffffffffffffffffffffffffffffffff1681526020019081526020016000208281548110611498577f4e487b7100000000000000000000000000000000000000000000000000000000600052603260045260246000fd5b906000526020600020906002020160000160009054906101000a900473ffffffffffffffffffffffffffffffffffffffff1690506000600260008573ffffffffffffffffffffffffffffffffffffffff1673ffffffffffffffffffffffffffffffffffffffff1681526020019081526020016000208381548110611545577f4e487b7100000000000000000000000000000000000000000000000000000000600052603260045260246000fd5b906000526020600020906002020160010154905060008290503073ffffffffffffffffffffffffffffffffffffffff168173ffffffffffffffffffffffffffffffffffffffff16636352211e846040518263ffffffff1660e01b81526004016115ae919061206c565b60206040518083038186803b1580156115c657600080fd5b505afa1580156115da573d6000803e3d6000fd5b505050506040513d601f19601f820116820180604052508101906115fe9190611ab2565b73ffffffffffffffffffffffffffffffffffffffff1614611654576040517f08c379a000000000000000000000000000000000000000000000000000000000815260040161164b90611fac565b60405180910390fd5b8073ffffffffffffffffffffffffffffffffffffffff166342842e0e3088856040518463ffffffff1660e01b815260040161169193929190611ef6565b600060405180830381600087803b1580156116ab57600080fd5b505af11580156116bf573d6000803e3d6000fd5b505050508573ffffffffffffffffffffffffffffffffffffffff168173ffffffffffffffffffffffffffffffffffffffff16636352211e846040518263ffffffff1660e01b8152600401611713919061206c565b60206040518083038186803b15801561172b57600080fd5b505afa15801561173f573d6000803e3d6000fd5b505050506040513d601f19601f820116820180604052508101906117639190611ab2565b73ffffffffffffffffffffffffffffffffffffffff16146117b9576040517f08c379a00000000000000000000000000000000000000000000000000000000081526004016117b09061200c565b60405180910390fd5b505050806117c6906121a5565b90506113d5565b505050565b6000600260008373ffffffffffffffffffffffffffffffffffffffff1673ffffffffffffffffffffffffffffffffffffffff1681526020019081526020016000209080546118219291906118fc565b506000600160008373ffffffffffffffffffffffffffffffffffffffff1673ffffffffffffffffffffffffffffffffffffffff16815260200190815260200160002060006101000a81548173ffffffffffffffffffffffffffffffffffffffff021916908373ffffffffffffffffffffffffffffffffffffffff1602179055506000600360008373ffffffffffffffffffffffffffffffffffffffff1673ffffffffffffffffffffffffffffffffffffffff16815260200190815260200160002060006101000a81548160ff02191690831515021790555050565b8280548282559060005260206000209060020281019282156119b45760005260206000209160020282015b828111156119b35782826000820160009054906101000a900473ffffffffffffffffffffffffffffffffffffffff168160000160006101000a81548173ffffffffffffffffffffffffffffffffffffffff021916908373ffffffffffffffffffffffffffffffffffffffff16021790555060018201548160010155505091600201919060020190611927565b5b5090506119c191906119c5565b5090565b5b80821115611a0757600080820160006101000a81549073ffffffffffffffffffffffffffffffffffffffff02191690556001820160009055506002016119c6565b5090565b6000611a1e611a19846120e1565b6120b0565b905082815260208101848484011115611a3657600080fd5b611a41848285612196565b509392505050565b600081359050611a588161224c565b92915050565b600081519050611a6d8161224c565b92915050565b600082601f830112611a8457600080fd5b8135611a94848260208601611a0b565b91505092915050565b600081359050611aac81612263565b92915050565b600060208284031215611ac457600080fd5b6000611ad284828501611a5e565b91505092915050565b60008060408385031215611aee57600080fd5b6000611afc85828601611a49565b9250506020611b0d85828601611a49565b9150509250929050565b60008060008060808587031215611b2d57600080fd5b6000611b3b87828801611a49565b9450506020611b4c87828801611a49565b9350506040611b5d87828801611a9d565b925050606085013567ffffffffffffffff811115611b7a57600080fd5b611b8687828801611a73565b91505092959194509250565b60008060408385031215611ba557600080fd5b6000611bb385828601611a49565b9250506020611bc485828601611a9d565b9150509250929050565b600060208284031215611be057600080fd5b6000611bee84828501611a9d565b91505092915050565b611c0081612122565b82525050565b611c0f81612134565b82525050565b611c1e81612140565b82525050565b6000611c31602b83612111565b91507f457363726f77206973206e6f7420617070726f76656420666f7220737065636960008301527f6669656420746f6b656e2e0000000000000000000000000000000000000000006020830152604082019050919050565b6000611c97602983612111565b91507f436f6e7472616374206973206e6f74204f6e776572206f66207370656369666960008301527f656420746f6b656e2e00000000000000000000000000000000000000000000006020830152604082019050919050565b6000611cfd601c83612111565b91507f4f776e6572322068617320616c72656164792061206261736b65742e000000006000830152602082019050919050565b6000611d3d602883612111565b91507f496e76616c69646174696e672070726576696f75732041677265656d656e747360008301527f206661696c65642e0000000000000000000000000000000000000000000000006020830152604082019050919050565b6000611da3602c83612111565b91507f4661696c656420746f207472616e7366657220746f6b656e20746f204573637260008301527f6f7720436f6e74726163742e00000000000000000000000000000000000000006020830152604082019050919050565b6000611e09602783612111565b91507f43616c6c6572206973206e6f74204f6e776572206f662073706563696669656460008301527f20746f6b656e2e000000000000000000000000000000000000000000000000006020830152604082019050919050565b6000611e6f601c83612111565b91507f4f776e6572312068617320616c72656164792061206261736b65742e000000006000830152602082019050919050565b611eab8161218c565b82525050565b6000608082019050611ec66000830187611bf7565b611ed36020830186611bf7565b611ee06040830185611c06565b611eed6060830184611c06565b95945050505050565b6000606082019050611f0b6000830186611bf7565b611f186020830185611bf7565b611f256040830184611ea2565b949350505050565b6000604082019050611f426000830185611bf7565b611f4f6020830184611ea2565b9392505050565b6000602082019050611f6b6000830184611c06565b92915050565b6000602082019050611f866000830184611c15565b92915050565b60006020820190508181036000830152611fa581611c24565b9050919050565b60006020820190508181036000830152611fc581611c8a565b9050919050565b60006020820190508181036000830152611fe581611cf0565b9050919050565b6000602082019050818103600083015261200581611d30565b9050919050565b6000602082019050818103600083015261202581611d96565b9050919050565b6000602082019050818103600083015261204581611dfc565b9050919050565b6000602082019050818103600083015261206581611e62565b9050919050565b60006020820190506120816000830184611ea2565b92915050565b600060408201905061209c6000830185611ea2565b6120a96020830184611ea2565b9392505050565b6000604051905081810181811067ffffffffffffffff821117156120d7576120d661221d565b5b8060405250919050565b600067ffffffffffffffff8211156120fc576120fb61221d565b5b601f19601f8301169050602081019050919050565b600082825260208201905092915050565b600061212d8261216c565b9050919050565b60008115159050919050565b60007fffffffff0000000000000000000000000000000000000000000000000000000082169050919050565b600073ffffffffffffffffffffffffffffffffffffffff82169050919050565b6000819050919050565b82818337600083830152505050565b60006121b08261218c565b91507fffffffffffffffffffffffffffffffffffffffffffffffffffffffffffffffff8214156121e3576121e26121ee565b5b600182019050919050565b7f4e487b7100000000000000000000000000000000000000000000000000000000600052601160045260246000fd5b7f4e487b7100000000000000000000000000000000000000000000000000000000600052604160045260246000fd5b61225581612122565b811461226057600080fd5b50565b61226c8161218c565b811461227757600080fd5b5056fea26469706673582212208110f8668d90f445812f865d0385c7a6437c73b8894158e4c5eebc3e353d17e764736f6c63430008000033",
  "immutableReferences": {},
  "source": "// SPDX-License-Identifier: MIT\npragma solidity >=0.4.22 <0.9.0;\n\nimport \"@openzeppelin/contracts/token/ERC721/ERC721.sol\";\nimport \"@openzeppelin/contracts/token/ERC721/utils/ERC721Holder.sol\";\n\ncontract Escrow is ERC721Holder {\n\n  struct NftData {\n    address tokenAddress; \n    uint256 tokenID; \n  }\n\n  NftData[] private emptyNftDataArray;\n  mapping(address => address) private _partner;\n  mapping(address => NftData[]) private _baskets;\n  mapping(address => bool) private _agreed;\n\n  event createdBasket();\n  event successfulDeposit(\n    address indexed owner,\n    address indexed tokenAddress,\n    uint256 indexed tokenID);\n  event setAgreed(address indexed owner);\n  event successfulCancel(address indexed caller, address indexed partner);\n\n  modifier isBasketOwner() {\n    //require(_partner[msg.sender] != address(0));\n    require(hasBasket());\n    _;\n  }\n\n  function hasBasket() public view returns (bool) {\n    return (_partner[msg.sender] != address(0));\n  }\n\n  function createBaskets(address owner1, address owner2) public {\n    require(_partner[owner1] == address(0),\n    \"Owner1 has already a basket.\");\n    require(_partner[owner2] == address(0),\n    \"Owner2 has already a basket.\");\n    _partner[owner1] = owner2;\n    _partner[owner2] = owner1;\n\n    emit createdBasket();\n  }\n\n  function deposit(address tokenAddress, uint256 tokenID) \n  public \n  isBasketOwner()\n  {\n    ERC721 erc271 = ERC721(tokenAddress);\n    require(erc271.ownerOf(tokenID) == msg.sender, \n    \"Caller is not Onwer of specified token.\");\n\n    require(erc271.getApproved(tokenID) == address(this), \n    \"Escrow is not approved for specified token.\");\n\n    erc271.safeTransferFrom(msg.sender, address(this), tokenID);\n\n    require(erc271.ownerOf(tokenID) == address(this),\n    \"Failed to transfer token to Escrow Contract.\");\n\n    _agreed[msg.sender] = false;\n    _agreed[_partner[msg.sender]] = false;\n    require(!_agreed[msg.sender] && !_agreed[_partner[msg.sender]], \n    \"Invalidating previous Agreements failed.\");\n    _baskets[msg.sender].push(NftData({\n      tokenAddress: tokenAddress,\n      tokenID: tokenID\n    }));\n    emit successfulDeposit(msg.sender, tokenAddress, tokenID);\n  }\n  \n  function cancel() public \n  isBasketOwner()\n  {\n    address partner = _partner[msg.sender];\n    _transferAllTokens(msg.sender, msg.sender);\n    _transferAllTokens(partner, partner);\n    _clearFor(msg.sender);\n    _clearFor(partner);\n    emit successfulCancel(msg.sender, partner);\n  }\n\n  function agree() public \n  isBasketOwner() \n  {\n    _agreed[msg.sender] = true;\n    emit setAgreed(msg.sender);\n    address partner = _partner[msg.sender];\n    if (_agreed[partner]) {\n      _transferAllTokens(msg.sender, partner);\n      _transferAllTokens(partner, msg.sender);\n      _clearFor(msg.sender);\n      _clearFor(partner);\n    }\n  }\n\n  function viewMyBasket(uint item) public view \n  isBasketOwner()\n  returns (address tokenAddress, uint256 tokenID) \n  {\n    return _viewBasketFromAddress(msg.sender, item);\n  }\n\n  function viewPartnerBasket(uint item) public view \n  isBasketOwner()\n  returns (address tokenAddress, uint256 tokenID) \n  {\n    return _viewBasketFromAddress(_partner[msg.sender], item);\n  }\n\n  function viewNumberOfDepositedTokens() public view \n  isBasketOwner()\n  returns (uint nrTokensCaller, uint nrTokensParter) \n  {\n    nrTokensCaller = _baskets[msg.sender].length;\n    nrTokensParter = _baskets[_partner[msg.sender]].length;\n  }\n\n  function _viewBasketFromAddress(address addr, uint item) internal view\n  returns (address tokenAddress, uint256 tokenID) \n  {\n    if (item < _baskets[addr].length) {\n      tokenAddress = _baskets[addr][item].tokenAddress;\n      tokenID = _baskets[addr][item].tokenID;\n    } else {\n      tokenAddress = address(0);\n      tokenID = 0;\n    }}\n\n  function viewState() public view \n  returns (address owner1, address owner2, bool agree1, bool agree2){\n    if (_partner[msg.sender] == address(0)) {\n      owner1 = address(0);\n      owner2 = address(0);\n      agree1 = false;\n      agree2 = false;\n    } else {\n      owner1 = msg.sender;\n      owner2 = _partner[msg.sender];\n      agree1 = _agreed[msg.sender];\n      agree2 = _agreed[owner2];\n    }\n  }\n\n  function _transferAllTokens(address toAddress, address basketAddress) \n  internal \n  {\n    for (uint i = 0; i < _baskets[basketAddress].length; ++i) {\n      address tokenAddress = _baskets[basketAddress][i].tokenAddress;\n      uint256 tokenID = _baskets[basketAddress][i].tokenID;\n      ERC721 erc271 = ERC721(tokenAddress);\n      require(erc271.ownerOf(tokenID) == address(this), \n      \"Contract is not Onwer of specified token.\");\n      erc271.safeTransferFrom(address(this), toAddress, tokenID);\n      require(erc271.ownerOf(tokenID) == toAddress,\n      \"Failed to transfer token to Escrow Contract.\");\n    }\n  }\n\n  function _clearFor(address addr) \n  internal \n  {\n    _baskets[addr] = emptyNftDataArray;\n    _partner[addr] = address(0);\n    _agreed[addr] = false;\n  }\n}\n",
  "sourcePath": "/Users/mareike/ConsenSys/blockchain-developer-bootcamp-final-project/contracts/Escrow.sol",
  "compiler": {
    "name": "solc",
    "version": "0.8.0+commit.c7dfd78e.Emscripten.clang"
  },
  "schemaVersion": "3.4.3",
  "updatedAt": "2021-11-13T15:26:49.130Z",
  "networkType": "ethereum",
  "devdoc": {
    "kind": "dev",
    "methods": {
      "onERC721Received(address,address,uint256,bytes)": {
        "details": "See {IERC721Receiver-onERC721Received}. Always returns `IERC721Receiver.onERC721Received.selector`."
      }
    },
    "version": 1
  },
  "userdoc": {
    "kind": "user",
    "methods": {},
    "version": 1
  }
}