{
  "contractName": "Escrow",
  "abi": [
    {
      "constant": false,
      "inputs": [
        {
          "internalType": "address",
          "name": "owner1",
          "type": "address"
        },
        {
          "internalType": "address",
          "name": "owner2",
          "type": "address"
        }
      ],
      "name": "createBaskets",
      "outputs": [],
      "payable": false,
      "stateMutability": "nonpayable",
      "type": "function"
    },
    {
      "constant": false,
      "inputs": [
        {
          "internalType": "address",
          "name": "token",
          "type": "address"
        }
      ],
      "name": "deposit",
      "outputs": [],
      "payable": true,
      "stateMutability": "payable",
      "type": "function"
    },
    {
      "constant": false,
      "inputs": [],
      "name": "withdraw",
      "outputs": [],
      "payable": false,
      "stateMutability": "nonpayable",
      "type": "function"
    },
    {
      "constant": false,
      "inputs": [],
      "name": "agree",
      "outputs": [],
      "payable": false,
      "stateMutability": "nonpayable",
      "type": "function"
    },
    {
      "constant": true,
      "inputs": [],
      "name": "viewBaskets",
      "outputs": [],
      "payable": false,
      "stateMutability": "view",
      "type": "function"
    }
  ],
  "bytecode": "0x608060405234801561001057600080fd5b5061018b806100206000396000f3fe60806040526004361061004a5760003560e01c806312fe2bee1461004f5780633ccfd60b146100c05780638f9d5882146100d75780638fae60a5146100ee578063f340fa0114610105575b600080fd5b34801561005b57600080fd5b506100be6004803603604081101561007257600080fd5b81019080803573ffffffffffffffffffffffffffffffffffffffff169060200190929190803573ffffffffffffffffffffffffffffffffffffffff169060200190929190505050610149565b005b3480156100cc57600080fd5b506100d561014d565b005b3480156100e357600080fd5b506100ec61014f565b005b3480156100fa57600080fd5b50610103610151565b005b6101476004803603602081101561011b57600080fd5b81019080803573ffffffffffffffffffffffffffffffffffffffff169060200190929190505050610153565b005b5050565b565b565b565b5056fea265627a7a723158200f3a46161f3340897c70fce72442237442161800a9c57010f2799de11ffc53ab64736f6c63430005100032",
  "source": "// SPDX-License-Identifier: MIT\npragma solidity >=0.4.22 <0.9.0;\n\ncontract Escrow {\n\n  modifier isBasketOwner() {\n    // check if msg.sende owns one of the baskest\n    _;\n  }\n\n  function createBaskets(address owner1, address owner2) public {\n    // make baskets for 2 parties\n\n  }\n\n  function deposit(address token) public payable {\n    // check if msg.sender owns one of the baskets\n    // check if token is actually owned by sender?\n    // if yes, invalidate previous agreements and\n    // transfer token to the coresponding basket\n  }\n\n  function withdraw() public {\n    // check if msg.sender owns one of the baskets\n    // if yes, invalidate previous agreements and\n    // return all tokens that are in senders basket\n  }\n\n  function agree() public {\n    // check if msg.sender owns one of the baskets\n    // log agreement\n    // if both basket owners are currently agreeing:\n    // -> start basket swap routine \n  }\n\n  function viewBaskets() public view {\n    // check if msg sender is one of the owner? (useless, every body can view internal state)\n    // show content of both baskets (in a nice way)\n  }\n\n  function swapBaskets() internal {\n    // swap routine, internal function\n  }\n}\n",
  "sourcePath": "/Users/mareike/ConsenSys/blockchain-developer-bootcamp-final-project/contracts/Escrow.sol",
  "compiler": {
    "name": "solc",
    "version": "0.5.16+commit.9c3226ce.Emscripten.clang"
  },
  "schemaVersion": "3.4.3",
  "updatedAt": "2021-11-05T14:01:38.755Z",
  "networkType": "ethereum",
  "devdoc": {
    "methods": {}
  },
  "userdoc": {
    "methods": {}
  }
}