{
  "contractName": "Escrow",
  "abi": [
    {
      "anonymous": false,
      "inputs": [],
      "name": "createdBasket",
      "type": "event"
    },
    {
      "anonymous": false,
      "inputs": [
        {
          "indexed": true,
          "internalType": "address",
          "name": "tokenOwner",
          "type": "address"
        },
        {
          "indexed": true,
          "internalType": "address",
          "name": "tokenAddress",
          "type": "address"
        },
        {
          "indexed": true,
          "internalType": "uint256",
          "name": "tokenID",
          "type": "uint256"
        }
      ],
      "name": "escrowIsNotOwner",
      "type": "event"
    },
    {
      "anonymous": false,
      "inputs": [
        {
          "indexed": true,
          "internalType": "address",
          "name": "owner",
          "type": "address"
        }
      ],
      "name": "setAgreed",
      "type": "event"
    },
    {
      "anonymous": false,
      "inputs": [
        {
          "indexed": true,
          "internalType": "address",
          "name": "caller",
          "type": "address"
        },
        {
          "indexed": true,
          "internalType": "address",
          "name": "partner",
          "type": "address"
        }
      ],
      "name": "successfulCancel",
      "type": "event"
    },
    {
      "anonymous": false,
      "inputs": [
        {
          "indexed": true,
          "internalType": "address",
          "name": "owner",
          "type": "address"
        },
        {
          "indexed": true,
          "internalType": "address",
          "name": "tokenAddress",
          "type": "address"
        },
        {
          "indexed": true,
          "internalType": "uint256",
          "name": "tokenID",
          "type": "uint256"
        }
      ],
      "name": "successfulDeposit",
      "type": "event"
    },
    {
      "inputs": [
        {
          "internalType": "address",
          "name": "",
          "type": "address"
        },
        {
          "internalType": "address",
          "name": "",
          "type": "address"
        },
        {
          "internalType": "uint256",
          "name": "",
          "type": "uint256"
        },
        {
          "internalType": "bytes",
          "name": "",
          "type": "bytes"
        }
      ],
      "name": "onERC721Received",
      "outputs": [
        {
          "internalType": "bytes4",
          "name": "",
          "type": "bytes4"
        }
      ],
      "stateMutability": "nonpayable",
      "type": "function"
    },
    {
      "inputs": [],
      "name": "hasBasket",
      "outputs": [
        {
          "internalType": "bool",
          "name": "",
          "type": "bool"
        }
      ],
      "stateMutability": "view",
      "type": "function",
      "constant": true
    },
    {
      "inputs": [
        {
          "internalType": "address",
          "name": "owner1",
          "type": "address"
        },
        {
          "internalType": "address",
          "name": "owner2",
          "type": "address"
        }
      ],
      "name": "createBaskets",
      "outputs": [],
      "stateMutability": "nonpayable",
      "type": "function"
    },
    {
      "inputs": [
        {
          "internalType": "address",
          "name": "tokenAddress",
          "type": "address"
        },
        {
          "internalType": "uint256",
          "name": "tokenID",
          "type": "uint256"
        }
      ],
      "name": "deposit",
      "outputs": [],
      "stateMutability": "nonpayable",
      "type": "function"
    },
    {
      "inputs": [],
      "name": "cancel",
      "outputs": [],
      "stateMutability": "nonpayable",
      "type": "function"
    },
    {
      "inputs": [],
      "name": "agree",
      "outputs": [],
      "stateMutability": "nonpayable",
      "type": "function"
    },
    {
      "inputs": [
        {
          "internalType": "uint256",
          "name": "item",
          "type": "uint256"
        }
      ],
      "name": "viewMyBasket",
      "outputs": [
        {
          "internalType": "address",
          "name": "tokenAddress",
          "type": "address"
        },
        {
          "internalType": "uint256",
          "name": "tokenID",
          "type": "uint256"
        }
      ],
      "stateMutability": "view",
      "type": "function",
      "constant": true
    },
    {
      "inputs": [
        {
          "internalType": "uint256",
          "name": "item",
          "type": "uint256"
        }
      ],
      "name": "viewPartnerBasket",
      "outputs": [
        {
          "internalType": "address",
          "name": "tokenAddress",
          "type": "address"
        },
        {
          "internalType": "uint256",
          "name": "tokenID",
          "type": "uint256"
        }
      ],
      "stateMutability": "view",
      "type": "function",
      "constant": true
    },
    {
      "inputs": [],
      "name": "viewNumberOfDepositedTokens",
      "outputs": [
        {
          "internalType": "uint256",
          "name": "nrTokensCaller",
          "type": "uint256"
        },
        {
          "internalType": "uint256",
          "name": "nrTokensParter",
          "type": "uint256"
        }
      ],
      "stateMutability": "view",
      "type": "function",
      "constant": true
    },
    {
      "inputs": [],
      "name": "viewState",
      "outputs": [
        {
          "internalType": "address",
          "name": "owner1",
          "type": "address"
        },
        {
          "internalType": "address",
          "name": "owner2",
          "type": "address"
        },
        {
          "internalType": "bool",
          "name": "agree1",
          "type": "bool"
        },
        {
          "internalType": "bool",
          "name": "agree2",
          "type": "bool"
        }
      ],
      "stateMutability": "view",
      "type": "function",
      "constant": true
    }
  ],
  "bytecode": "0x608060405234801561001057600080fd5b506125ca806100206000396000f3fe608060405234801561001057600080fd5b506004361061009e5760003560e01c80638e787126116100665780638e7871261461015d5780638fae60a51461017b578063997ccfdd14610185578063ea0569b7146101b6578063ea8a1af0146101d55761009e565b806312fe2bee146100a3578063150b7a02146100bf57806315d60039146100ef57806347e7ef2414610120578063801f39611461013c575b600080fd5b6100bd60048036038101906100b89190611d0f565b6101df565b005b6100d960048036038101906100d49190611d4b565b6104b9565b6040516100e6919061224b565b60405180910390f35b61010960048036038101906101049190611e02565b6104cd565b604051610117929190612207565b60405180910390f35b61013a60048036038101906101359190611dc6565b610553565b005b610144610a69565b604051610154949392919061218b565b60405180910390f35b610165610c22565b6040516101729190612230565b60405180910390f35b610183610cb8565b005b61019f600480360381019061019a9190611e02565b610e28565b6040516101ad929190612207565b60405180910390f35b6101be610e4f565b6040516101cc9291906123a1565b60405180910390f35b6101dd610f50565b005b600073ffffffffffffffffffffffffffffffffffffffff16600160008473ffffffffffffffffffffffffffffffffffffffff1673ffffffffffffffffffffffffffffffffffffffff16815260200190815260200160002060009054906101000a900473ffffffffffffffffffffffffffffffffffffffff1673ffffffffffffffffffffffffffffffffffffffff16146102ad576040517f08c379a00000000000000000000000000000000000000000000000000000000081526004016102a490612366565b60405180910390fd5b600073ffffffffffffffffffffffffffffffffffffffff16600160008373ffffffffffffffffffffffffffffffffffffffff1673ffffffffffffffffffffffffffffffffffffffff16815260200190815260200160002060009054906101000a900473ffffffffffffffffffffffffffffffffffffffff1673ffffffffffffffffffffffffffffffffffffffff161461037b576040517f08c379a0000000000000000000000000000000000000000000000000000000008152600401610372906122e6565b60405180910390fd5b80600160008473ffffffffffffffffffffffffffffffffffffffff1673ffffffffffffffffffffffffffffffffffffffff16815260200190815260200160002060006101000a81548173ffffffffffffffffffffffffffffffffffffffff021916908373ffffffffffffffffffffffffffffffffffffffff16021790555081600160008373ffffffffffffffffffffffffffffffffffffffff1673ffffffffffffffffffffffffffffffffffffffff16815260200190815260200160002060006101000a81548173ffffffffffffffffffffffffffffffffffffffff021916908373ffffffffffffffffffffffffffffffffffffffff1602179055506104808261102c565b6104898161102c565b7f3ae874e150f655b3cf1eb44d32ce340dead6f63abe726d32873d9f977a68a19560405160405180910390a15050565b600063150b7a0260e01b9050949350505050565b6000806104d8610c22565b6104e157600080fd5b61054a600160003373ffffffffffffffffffffffffffffffffffffffff1673ffffffffffffffffffffffffffffffffffffffff16815260200190815260200160002060009054906101000a900473ffffffffffffffffffffffffffffffffffffffff168461107f565b91509150915091565b61055b610c22565b61056457600080fd5b6105cd33600160003373ffffffffffffffffffffffffffffffffffffffff1673ffffffffffffffffffffffffffffffffffffffff16815260200190815260200160002060009054906101000a900473ffffffffffffffffffffffffffffffffffffffff16611217565b60008290503373ffffffffffffffffffffffffffffffffffffffff168173ffffffffffffffffffffffffffffffffffffffff16636352211e846040518263ffffffff1660e01b81526004016106229190612386565b60206040518083038186803b15801561063a57600080fd5b505afa15801561064e573d6000803e3d6000fd5b505050506040513d601f19601f820116820180604052508101906106729190611ce6565b73ffffffffffffffffffffffffffffffffffffffff16146106c8576040517f08c379a00000000000000000000000000000000000000000000000000000000081526004016106bf90612346565b60405180910390fd5b3073ffffffffffffffffffffffffffffffffffffffff168173ffffffffffffffffffffffffffffffffffffffff1663081812fc846040518263ffffffff1660e01b81526004016107189190612386565b60206040518083038186803b15801561073057600080fd5b505afa158015610744573d6000803e3d6000fd5b505050506040513d601f19601f820116820180604052508101906107689190611ce6565b73ffffffffffffffffffffffffffffffffffffffff16146107be576040517f08c379a00000000000000000000000000000000000000000000000000000000081526004016107b590612266565b60405180910390fd5b600260003373ffffffffffffffffffffffffffffffffffffffff1673ffffffffffffffffffffffffffffffffffffffff16815260200190815260200160002060405180604001604052808573ffffffffffffffffffffffffffffffffffffffff16815260200184815250908060018154018082558091505060019003906000526020600020906002020160009091909190915060008201518160000160006101000a81548173ffffffffffffffffffffffffffffffffffffffff021916908373ffffffffffffffffffffffffffffffffffffffff1602179055506020820151816001015550508073ffffffffffffffffffffffffffffffffffffffff166342842e0e3330856040518463ffffffff1660e01b81526004016108e1939291906121d0565b600060405180830381600087803b1580156108fb57600080fd5b505af115801561090f573d6000803e3d6000fd5b505050503073ffffffffffffffffffffffffffffffffffffffff168173ffffffffffffffffffffffffffffffffffffffff16636352211e846040518263ffffffff1660e01b81526004016109639190612386565b60206040518083038186803b15801561097b57600080fd5b505afa15801561098f573d6000803e3d6000fd5b505050506040513d601f19601f820116820180604052508101906109b39190611ce6565b73ffffffffffffffffffffffffffffffffffffffff1614610a09576040517f08c379a0000000000000000000000000000000000000000000000000000000008152600401610a0090612326565b60405180910390fd5b818373ffffffffffffffffffffffffffffffffffffffff163373ffffffffffffffffffffffffffffffffffffffff167f1c0b0f1a47c177565be3a88b20d70b9e3469d8630a3ce147ac3ea5d0faecdb7460405160405180910390a4505050565b600080600080600073ffffffffffffffffffffffffffffffffffffffff16600160003373ffffffffffffffffffffffffffffffffffffffff1673ffffffffffffffffffffffffffffffffffffffff16815260200190815260200160002060009054906101000a900473ffffffffffffffffffffffffffffffffffffffff1673ffffffffffffffffffffffffffffffffffffffff161415610b185760009350600092506000915060009050610c1c565b339350600160003373ffffffffffffffffffffffffffffffffffffffff1673ffffffffffffffffffffffffffffffffffffffff16815260200190815260200160002060009054906101000a900473ffffffffffffffffffffffffffffffffffffffff169250600360003373ffffffffffffffffffffffffffffffffffffffff1673ffffffffffffffffffffffffffffffffffffffff16815260200190815260200160002060009054906101000a900460ff169150600360008473ffffffffffffffffffffffffffffffffffffffff1673ffffffffffffffffffffffffffffffffffffffff16815260200190815260200160002060009054906101000a900460ff1690505b90919293565b60008073ffffffffffffffffffffffffffffffffffffffff16600160003373ffffffffffffffffffffffffffffffffffffffff1673ffffffffffffffffffffffffffffffffffffffff16815260200190815260200160002060009054906101000a900473ffffffffffffffffffffffffffffffffffffffff1673ffffffffffffffffffffffffffffffffffffffff161415905090565b610cc0610c22565b610cc957600080fd5b6001600360003373ffffffffffffffffffffffffffffffffffffffff1673ffffffffffffffffffffffffffffffffffffffff16815260200190815260200160002060006101000a81548160ff0219169083151502179055503373ffffffffffffffffffffffffffffffffffffffff167f079247e98bd2a29ad577bfa97ea8d6011d1ae06cf9d8c71fbcb24b71f58f7bb460405160405180910390a26000600160003373ffffffffffffffffffffffffffffffffffffffff1673ffffffffffffffffffffffffffffffffffffffff16815260200190815260200160002060009054906101000a900473ffffffffffffffffffffffffffffffffffffffff169050600360008273ffffffffffffffffffffffffffffffffffffffff1673ffffffffffffffffffffffffffffffffffffffff16815260200190815260200160002060009054906101000a900460ff1615610e2557610e2433826113ae565b5b50565b600080610e33610c22565b610e3c57600080fd5b610e46338461107f565b91509150915091565b600080610e5a610c22565b610e6357600080fd5b600260003373ffffffffffffffffffffffffffffffffffffffff1673ffffffffffffffffffffffffffffffffffffffff16815260200190815260200160002080549050915060026000600160003373ffffffffffffffffffffffffffffffffffffffff1673ffffffffffffffffffffffffffffffffffffffff16815260200190815260200160002060009054906101000a900473ffffffffffffffffffffffffffffffffffffffff1673ffffffffffffffffffffffffffffffffffffffff1673ffffffffffffffffffffffffffffffffffffffff1681526020019081526020016000208054905090509091565b610f58610c22565b610f6157600080fd5b6000600160003373ffffffffffffffffffffffffffffffffffffffff1673ffffffffffffffffffffffffffffffffffffffff16815260200190815260200160002060009054906101000a900473ffffffffffffffffffffffffffffffffffffffff169050610fcf33826113d8565b8073ffffffffffffffffffffffffffffffffffffffff163373ffffffffffffffffffffffffffffffffffffffff167fcbab4befe43e2080c1b596424d0c2a68d020cbd6fb9d9b47974dbb9c1515834b60405160405180910390a350565b6000600260008373ffffffffffffffffffffffffffffffffffffffff1673ffffffffffffffffffffffffffffffffffffffff16815260200190815260200160002090805461107b929190611b30565b5050565b600080600260008573ffffffffffffffffffffffffffffffffffffffff1673ffffffffffffffffffffffffffffffffffffffff1681526020019081526020016000208054905083101561120757600260008573ffffffffffffffffffffffffffffffffffffffff1673ffffffffffffffffffffffffffffffffffffffff1681526020019081526020016000208381548110611143577f4e487b7100000000000000000000000000000000000000000000000000000000600052603260045260246000fd5b906000526020600020906002020160000160009054906101000a900473ffffffffffffffffffffffffffffffffffffffff169150600260008573ffffffffffffffffffffffffffffffffffffffff1673ffffffffffffffffffffffffffffffffffffffff16815260200190815260200160002083815481106111ee577f4e487b7100000000000000000000000000000000000000000000000000000000600052603260045260246000fd5b9060005260206000209060020201600101549050611210565b60009150600090505b9250929050565b6000600360008473ffffffffffffffffffffffffffffffffffffffff1673ffffffffffffffffffffffffffffffffffffffff16815260200190815260200160002060006101000a81548160ff0219169083151502179055506000600360008373ffffffffffffffffffffffffffffffffffffffff1673ffffffffffffffffffffffffffffffffffffffff16815260200190815260200160002060006101000a81548160ff021916908315150217905550600360008373ffffffffffffffffffffffffffffffffffffffff1673ffffffffffffffffffffffffffffffffffffffff16815260200190815260200160002060009054906101000a900460ff1615801561136b5750600360008273ffffffffffffffffffffffffffffffffffffffff1673ffffffffffffffffffffffffffffffffffffffff16815260200190815260200160002060009054906101000a900460ff16155b6113aa576040517f08c379a00000000000000000000000000000000000000000000000000000000081526004016113a190612306565b60405180910390fd5b5050565b6113b88282611217565b6113c0611402565b6113ca8282611703565b6113d48183611703565b5050565b6113e28282611217565b6113ea611402565b6113f48283611703565b6113fe8182611703565b5050565b6000600160003373ffffffffffffffffffffffffffffffffffffffff1673ffffffffffffffffffffffffffffffffffffffff16815260200190815260200160002060009054906101000a900473ffffffffffffffffffffffffffffffffffffffff1690506000600160003373ffffffffffffffffffffffffffffffffffffffff1673ffffffffffffffffffffffffffffffffffffffff16815260200190815260200160002060006101000a81548173ffffffffffffffffffffffffffffffffffffffff021916908373ffffffffffffffffffffffffffffffffffffffff1602179055506000600160008373ffffffffffffffffffffffffffffffffffffffff1673ffffffffffffffffffffffffffffffffffffffff16815260200190815260200160002060006101000a81548173ffffffffffffffffffffffffffffffffffffffff021916908373ffffffffffffffffffffffffffffffffffffffff160217905550600073ffffffffffffffffffffffffffffffffffffffff16600160003373ffffffffffffffffffffffffffffffffffffffff1673ffffffffffffffffffffffffffffffffffffffff16815260200190815260200160002060009054906101000a900473ffffffffffffffffffffffffffffffffffffffff1673ffffffffffffffffffffffffffffffffffffffff1614611632576040517f08c379a000000000000000000000000000000000000000000000000000000000815260040161162990612286565b60405180910390fd5b600073ffffffffffffffffffffffffffffffffffffffff16600160008373ffffffffffffffffffffffffffffffffffffffff1673ffffffffffffffffffffffffffffffffffffffff16815260200190815260200160002060009054906101000a900473ffffffffffffffffffffffffffffffffffffffff1673ffffffffffffffffffffffffffffffffffffffff1614611700576040517f08c379a00000000000000000000000000000000000000000000000000000000081526004016116f7906122a6565b60405180910390fd5b50565b60005b600260008373ffffffffffffffffffffffffffffffffffffffff1673ffffffffffffffffffffffffffffffffffffffff16815260200190815260200160002080549050811015611b2b576000600260008473ffffffffffffffffffffffffffffffffffffffff1673ffffffffffffffffffffffffffffffffffffffff16815260200190815260200160002082815481106117c9577f4e487b7100000000000000000000000000000000000000000000000000000000600052603260045260246000fd5b906000526020600020906002020160000160009054906101000a900473ffffffffffffffffffffffffffffffffffffffff1690506000600260008573ffffffffffffffffffffffffffffffffffffffff1673ffffffffffffffffffffffffffffffffffffffff1681526020019081526020016000208381548110611876577f4e487b7100000000000000000000000000000000000000000000000000000000600052603260045260246000fd5b9060005260206000209060020201600101549050600082905060008173ffffffffffffffffffffffffffffffffffffffff16636352211e846040518263ffffffff1660e01b81526004016118ca9190612386565b60206040518083038186803b1580156118e257600080fd5b505afa1580156118f6573d6000803e3d6000fd5b505050506040513d601f19601f8201168201806040525081019061191a9190611ce6565b90503073ffffffffffffffffffffffffffffffffffffffff168173ffffffffffffffffffffffffffffffffffffffff161415611aba578173ffffffffffffffffffffffffffffffffffffffff166342842e0e3089866040518463ffffffff1660e01b815260040161198d939291906121d0565b600060405180830381600087803b1580156119a757600080fd5b505af11580156119bb573d6000803e3d6000fd5b505050508673ffffffffffffffffffffffffffffffffffffffff168273ffffffffffffffffffffffffffffffffffffffff16636352211e856040518263ffffffff1660e01b8152600401611a0f9190612386565b60206040518083038186803b158015611a2757600080fd5b505afa158015611a3b573d6000803e3d6000fd5b505050506040513d601f19601f82011682018060405250810190611a5f9190611ce6565b73ffffffffffffffffffffffffffffffffffffffff1614611ab5576040517f08c379a0000000000000000000000000000000000000000000000000000000008152600401611aac906122c6565b60405180910390fd5b611b16565b828473ffffffffffffffffffffffffffffffffffffffff168273ffffffffffffffffffffffffffffffffffffffff167fb4c9733d7a2e0289438382cdc70be68df08c8f31e1c03bdb51565b3d004c726b60405160405180910390a45b5050505080611b24906124bf565b9050611706565b505050565b828054828255906000526020600020906002028101928215611be85760005260206000209160020282015b82811115611be75782826000820160009054906101000a900473ffffffffffffffffffffffffffffffffffffffff168160000160006101000a81548173ffffffffffffffffffffffffffffffffffffffff021916908373ffffffffffffffffffffffffffffffffffffffff16021790555060018201548160010155505091600201919060020190611b5b565b5b509050611bf59190611bf9565b5090565b5b80821115611c3b57600080820160006101000a81549073ffffffffffffffffffffffffffffffffffffffff0219169055600182016000905550600201611bfa565b5090565b6000611c52611c4d846123fb565b6123ca565b905082815260208101848484011115611c6a57600080fd5b611c758482856124b0565b509392505050565b600081359050611c8c81612566565b92915050565b600081519050611ca181612566565b92915050565b600082601f830112611cb857600080fd5b8135611cc8848260208601611c3f565b91505092915050565b600081359050611ce08161257d565b92915050565b600060208284031215611cf857600080fd5b6000611d0684828501611c92565b91505092915050565b60008060408385031215611d2257600080fd5b6000611d3085828601611c7d565b9250506020611d4185828601611c7d565b9150509250929050565b60008060008060808587031215611d6157600080fd5b6000611d6f87828801611c7d565b9450506020611d8087828801611c7d565b9350506040611d9187828801611cd1565b925050606085013567ffffffffffffffff811115611dae57600080fd5b611dba87828801611ca7565b91505092959194509250565b60008060408385031215611dd957600080fd5b6000611de785828601611c7d565b9250506020611df885828601611cd1565b9150509250929050565b600060208284031215611e1457600080fd5b6000611e2284828501611cd1565b91505092915050565b611e348161243c565b82525050565b611e438161244e565b82525050565b611e528161245a565b82525050565b6000611e65602b8361242b565b91507f457363726f77206973206e6f7420617070726f76656420666f7220737065636960008301527f6669656420746f6b656e2e0000000000000000000000000000000000000000006020830152604082019050919050565b6000611ecb60268361242b565b91507f4661696c656420746f2072656d6f7665206f776e657273686970206f6620706160008301527f72746e65722e00000000000000000000000000000000000000000000000000006020830152604082019050919050565b6000611f3160258361242b565b91507f4661696c656420746f2072656d6f7665206f776e657273686970206f6620636160008301527f6c6c65722e0000000000000000000000000000000000000000000000000000006020830152604082019050919050565b6000611f9760198361242b565b91507f4661696c656420746f207472616e7366657220746f6b656e2e000000000000006000830152602082019050919050565b6000611fd7601c8361242b565b91507f4f776e6572322068617320616c72656164792061206261736b65742e000000006000830152602082019050919050565b600061201760288361242b565b91507f496e76616c69646174696e672070726576696f75732041677265656d656e747360008301527f206661696c65642e0000000000000000000000000000000000000000000000006020830152604082019050919050565b600061207d602c8361242b565b91507f4661696c656420746f207472616e7366657220746f6b656e20746f204573637260008301527f6f7720436f6e74726163742e00000000000000000000000000000000000000006020830152604082019050919050565b60006120e360278361242b565b91507f43616c6c6572206973206e6f74204f6e776572206f662073706563696669656460008301527f20746f6b656e2e000000000000000000000000000000000000000000000000006020830152604082019050919050565b6000612149601c8361242b565b91507f4f776e6572312068617320616c72656164792061206261736b65742e000000006000830152602082019050919050565b612185816124a6565b82525050565b60006080820190506121a06000830187611e2b565b6121ad6020830186611e2b565b6121ba6040830185611e3a565b6121c76060830184611e3a565b95945050505050565b60006060820190506121e56000830186611e2b565b6121f26020830185611e2b565b6121ff604083018461217c565b949350505050565b600060408201905061221c6000830185611e2b565b612229602083018461217c565b9392505050565b60006020820190506122456000830184611e3a565b92915050565b60006020820190506122606000830184611e49565b92915050565b6000602082019050818103600083015261227f81611e58565b9050919050565b6000602082019050818103600083015261229f81611ebe565b9050919050565b600060208201905081810360008301526122bf81611f24565b9050919050565b600060208201905081810360008301526122df81611f8a565b9050919050565b600060208201905081810360008301526122ff81611fca565b9050919050565b6000602082019050818103600083015261231f8161200a565b9050919050565b6000602082019050818103600083015261233f81612070565b9050919050565b6000602082019050818103600083015261235f816120d6565b9050919050565b6000602082019050818103600083015261237f8161213c565b9050919050565b600060208201905061239b600083018461217c565b92915050565b60006040820190506123b6600083018561217c565b6123c3602083018461217c565b9392505050565b6000604051905081810181811067ffffffffffffffff821117156123f1576123f0612537565b5b8060405250919050565b600067ffffffffffffffff82111561241657612415612537565b5b601f19601f8301169050602081019050919050565b600082825260208201905092915050565b600061244782612486565b9050919050565b60008115159050919050565b60007fffffffff0000000000000000000000000000000000000000000000000000000082169050919050565b600073ffffffffffffffffffffffffffffffffffffffff82169050919050565b6000819050919050565b82818337600083830152505050565b60006124ca826124a6565b91507fffffffffffffffffffffffffffffffffffffffffffffffffffffffffffffffff8214156124fd576124fc612508565b5b600182019050919050565b7f4e487b7100000000000000000000000000000000000000000000000000000000600052601160045260246000fd5b7f4e487b7100000000000000000000000000000000000000000000000000000000600052604160045260246000fd5b61256f8161243c565b811461257a57600080fd5b50565b612586816124a6565b811461259157600080fd5b5056fea2646970667358221220f249b43f38e452d6c9acbf0692df16c2d4c7c7e0caf35d69e6f7f43bbf940b4364736f6c63430008000033",
  "immutableReferences": {},
  "source": "// SPDX-License-Identifier: MIT\npragma solidity >=0.4.22 <0.9.0;\n\nimport \"@openzeppelin/contracts/token/ERC721/ERC721.sol\";\nimport \"@openzeppelin/contracts/token/ERC721/utils/ERC721Holder.sol\";\n\n/// @title Escrow contract to exchange ERC721 NFTs\n/// @author Mareike Kuehn\n/// @notice Safely exchange a set of ERC721 NFTs with a partner. \ncontract Escrow is ERC721Holder {\n\n  struct NftData {\n    address tokenAddress; \n    uint256 tokenID; \n  }\n\n  NftData[] private emptyNftDataArray;\n  mapping(address => address) private _partner;\n  mapping(address => NftData[]) private _baskets;\n  mapping(address => bool) private _agreed;\n\n  event createdBasket();\n  event successfulDeposit(\n    address indexed owner,\n    address indexed tokenAddress,\n    uint256 indexed tokenID);\n  event setAgreed(address indexed owner);\n  event successfulCancel(address indexed caller, address indexed partner);\n  event escrowIsNotOwner(\n    address indexed tokenOwner,\n    address indexed tokenAddress,\n    uint256 indexed tokenID);\n\n  modifier isBasketOwner() {\n    require(hasBasket());\n    _;\n  }\n\n  /// @notice Check if caller already has a basket to exchange NFTs\n  /// @dev Using msg.sender for check (not tx.origin)\n  /// @return True, if the function caller already has a basket, else False\n  function hasBasket() public view returns (bool) {\n    return (_partner[msg.sender] != address(0));\n  }\n\n  /// @notice Create baskets for two addresses to exchange NFTs\n  /// @param owner1 Address of participant 1\n  /// @param owner2 Address of participant 2\n  function createBaskets(address owner1, address owner2) public {\n    require(_partner[owner1] == address(0),\n    \"Owner1 has already a basket.\");\n    require(_partner[owner2] == address(0),\n    \"Owner2 has already a basket.\");\n    _partner[owner1] = owner2;\n    _partner[owner2] = owner1;\n    _clearBasketFor(owner1);\n    _clearBasketFor(owner2);\n\n    emit createdBasket();\n  }\n\n  /// @notice Deposit an NFT (ERC721) in callers basket. Approve contract for this token before.\n  /// @param tokenAddress Address of contract of token\n  /// @param tokenID ID of the token\n  function deposit(address tokenAddress, uint256 tokenID) \n  public \n  isBasketOwner\n  {\n    _clearAgrees(msg.sender, _partner[msg.sender]);\n\n    ERC721 erc271 = ERC721(tokenAddress);\n    require(erc271.ownerOf(tokenID) == msg.sender, \n    \"Caller is not Onwer of specified token.\");\n\n    require(erc271.getApproved(tokenID) == address(this), \n    \"Escrow is not approved for specified token.\");\n\n    _baskets[msg.sender].push(NftData({\n      tokenAddress: tokenAddress,\n      tokenID: tokenID\n    }));\n\n    erc271.safeTransferFrom(msg.sender, address(this), tokenID);\n\n    require(erc271.ownerOf(tokenID) == address(this),\n    \"Failed to transfer token to Escrow Contract.\");\n\n    emit successfulDeposit(msg.sender, tokenAddress, tokenID);\n  }\n  \n  /// @notice Cancel this exchange. Will Return all NFTs to previous owners.\n  function cancel() public \n  isBasketOwner\n  {\n    address partner = _partner[msg.sender];\n    _transferAfterCancel(msg.sender, partner);\n    emit successfulCancel(msg.sender, partner);\n  }\n\n  /// @notice Agree to exchange tokens. If both user agree, tokens will be transfered to their new owner.\n  function agree() public \n  isBasketOwner\n  {\n    _agreed[msg.sender] = true;\n    emit setAgreed(msg.sender);\n    address partner = _partner[msg.sender];\n    if (_agreed[partner]) {\n      _transferAfterAgree(msg.sender, partner);\n    }\n  }\n\n  /// @notice View an item in callers basket\n  /// @dev returns 0 for id and address if item doesn't exist\n  /// @param item index of item to view\n  /// @return tokenAddress Adress of the deposited token \n  /// @return tokenID ID of the deposited token\n  function viewMyBasket(uint item) public view \n  isBasketOwner\n  returns (address tokenAddress, uint256 tokenID) \n  {\n    return _viewBasketFromAddress(msg.sender, item);\n  }\n\n  /// @notice View an item in caller partners basket\n  /// @dev returns 0 for id and address if item doesn't exist\n  /// @param item index of item to view\n  /// @return tokenAddress Adress of the deposited token \n  /// @return tokenID ID of the deposited token\n  function viewPartnerBasket(uint item) public view \n  isBasketOwner\n  returns (address tokenAddress, uint256 tokenID) \n  {\n    return _viewBasketFromAddress(_partner[msg.sender], item);\n  }\n\n  /// @notice Get number of deposited tokens for caller and partner\n  /// @return nrTokensCaller number of tokens the caller deposited \n  /// @return nrTokensParter number of tokens the callers partner deposited \n  function viewNumberOfDepositedTokens() public view \n  isBasketOwner\n  returns (uint nrTokensCaller, uint nrTokensParter) \n  {\n    nrTokensCaller = _baskets[msg.sender].length;\n    nrTokensParter = _baskets[_partner[msg.sender]].length;\n  }\n\n  /// @notice View the sate of ongoing callers transaction\n  /// @return owner1 address of caller\n  /// @return owner2 address of callers partner\n  /// @return agree1 True, if caller agreed to exchange tokens, else False\n  /// @return agree2 True, if partner agreed to exchange tokens, else False\n  function viewState() public view \n  returns (address owner1, address owner2, bool agree1, bool agree2){\n    if (_partner[msg.sender] == address(0)) {\n      owner1 = address(0);\n      owner2 = address(0);\n      agree1 = false;\n      agree2 = false;\n    } else {\n      owner1 = msg.sender;\n      owner2 = _partner[msg.sender];\n      agree1 = _agreed[msg.sender];\n      agree2 = _agreed[owner2];\n    }\n  }\n\n  function _viewBasketFromAddress(address addr, uint item) internal view\n  returns (address tokenAddress, uint256 tokenID) \n  {\n    if (item < _baskets[addr].length) {\n      tokenAddress = _baskets[addr][item].tokenAddress;\n      tokenID = _baskets[addr][item].tokenID;\n    } else {\n      tokenAddress = address(0);\n      tokenID = 0;\n    }}\n\n  function _transferAllTokens(address toAddress, address basketAddress) \n  internal \n  {\n    for (uint i = 0; i < _baskets[basketAddress].length; ++i) {\n      address tokenAddress = _baskets[basketAddress][i].tokenAddress;\n      uint256 tokenID = _baskets[basketAddress][i].tokenID;\n      ERC721 erc271 = ERC721(tokenAddress);\n      address tokenOwner = erc271.ownerOf(tokenID);\n      if (tokenOwner == address(this)) {\n        erc271.safeTransferFrom(address(this), toAddress, tokenID);\n        require(erc271.ownerOf(tokenID) == toAddress,\n        \"Failed to transfer token.\");\n      } else {\n        emit escrowIsNotOwner(tokenOwner, tokenAddress, tokenID);\n      }\n    }\n  }\n\n  function _transferAfterAgree(address caller, address partner) \n  internal \n  {\n    _clearAgrees(caller, partner);\n    _removeBasketOwnerships();\n    _transferAllTokens(caller, partner);\n    _transferAllTokens(partner, caller);\n\n  }\n\n  function _transferAfterCancel(address caller, address partner) \n  internal \n  {\n    _clearAgrees(caller, partner);\n    _removeBasketOwnerships();\n    _transferAllTokens(caller, caller);\n    _transferAllTokens(partner, partner);\n\n  }\n\n  function _removeBasketOwnerships() internal {\n    address partner = _partner[msg.sender];\n    _partner[msg.sender] = address(0);\n    _partner[partner] = address(0);\n    require(_partner[msg.sender] == address(0), \"Failed to remove ownership of partner.\");\n    require(_partner[partner] == address(0), \"Failed to remove ownership of caller.\");\n  }\n\n  function _clearAgrees(address caller, address partner) internal {\n    _agreed[caller] = false;\n    _agreed[partner] = false;\n    require(!_agreed[caller] && !_agreed[partner], \n    \"Invalidating previous Agreements failed.\");\n  }\n\n  function _clearBasketFor(address addr) \n  internal \n  {\n    _baskets[addr] = emptyNftDataArray;\n  }\n}\n",
  "sourcePath": "/Users/mareike/ConsenSys/blockchain-developer-bootcamp-final-project/contracts/Escrow.sol",
  "compiler": {
    "name": "solc",
    "version": "0.8.0+commit.c7dfd78e.Emscripten.clang"
  },
  "schemaVersion": "3.4.3",
  "updatedAt": "2021-11-26T18:20:28.770Z",
  "networkType": "ethereum",
  "devdoc": {
    "author": "Mareike Kuehn",
    "kind": "dev",
    "methods": {
      "createBaskets(address,address)": {
        "params": {
          "owner1": "Address of participant 1",
          "owner2": "Address of participant 2"
        }
      },
      "deposit(address,uint256)": {
        "params": {
          "tokenAddress": "Address of contract of token",
          "tokenID": "ID of the token"
        }
      },
      "hasBasket()": {
        "details": "Using msg.sender for check (not tx.origin)",
        "returns": {
          "_0": "True, if the function caller already has a basket, else False"
        }
      },
      "onERC721Received(address,address,uint256,bytes)": {
        "details": "See {IERC721Receiver-onERC721Received}. Always returns `IERC721Receiver.onERC721Received.selector`."
      },
      "viewMyBasket(uint256)": {
        "details": "returns 0 for id and address if item doesn't exist",
        "params": {
          "item": "index of item to view"
        },
        "returns": {
          "tokenAddress": "Adress of the deposited token ",
          "tokenID": "ID of the deposited token"
        }
      },
      "viewNumberOfDepositedTokens()": {
        "returns": {
          "nrTokensCaller": "number of tokens the caller deposited ",
          "nrTokensParter": "number of tokens the callers partner deposited "
        }
      },
      "viewPartnerBasket(uint256)": {
        "details": "returns 0 for id and address if item doesn't exist",
        "params": {
          "item": "index of item to view"
        },
        "returns": {
          "tokenAddress": "Adress of the deposited token ",
          "tokenID": "ID of the deposited token"
        }
      },
      "viewState()": {
        "returns": {
          "agree1": "True, if caller agreed to exchange tokens, else False",
          "agree2": "True, if partner agreed to exchange tokens, else False",
          "owner1": "address of caller",
          "owner2": "address of callers partner"
        }
      }
    },
    "title": "Escrow contract to exchange ERC721 NFTs",
    "version": 1
  },
  "userdoc": {
    "kind": "user",
    "methods": {
      "agree()": {
        "notice": "Agree to exchange tokens. If both user agree, tokens will be transfered to their new owner."
      },
      "cancel()": {
        "notice": "Cancel this exchange. Will Return all NFTs to previous owners."
      },
      "createBaskets(address,address)": {
        "notice": "Create baskets for two addresses to exchange NFTs"
      },
      "deposit(address,uint256)": {
        "notice": "Deposit an NFT (ERC721) in callers basket. Approve contract for this token before."
      },
      "hasBasket()": {
        "notice": "Check if caller already has a basket to exchange NFTs"
      },
      "viewMyBasket(uint256)": {
        "notice": "View an item in callers basket"
      },
      "viewNumberOfDepositedTokens()": {
        "notice": "Get number of deposited tokens for caller and partner"
      },
      "viewPartnerBasket(uint256)": {
        "notice": "View an item in caller partners basket"
      },
      "viewState()": {
        "notice": "View the sate of ongoing callers transaction"
      }
    },
    "notice": "Safely exchange a set of ERC721 NFTs with a partner. ",
    "version": 1
  }
}