{
  "contractName": "TestNFTs",
  "abi": [
    {
      "inputs": [],
      "stateMutability": "nonpayable",
      "type": "constructor"
    },
    {
      "anonymous": false,
      "inputs": [
        {
          "indexed": true,
          "internalType": "address",
          "name": "owner",
          "type": "address"
        },
        {
          "indexed": true,
          "internalType": "address",
          "name": "approved",
          "type": "address"
        },
        {
          "indexed": true,
          "internalType": "uint256",
          "name": "tokenId",
          "type": "uint256"
        }
      ],
      "name": "Approval",
      "type": "event"
    },
    {
      "anonymous": false,
      "inputs": [
        {
          "indexed": true,
          "internalType": "address",
          "name": "owner",
          "type": "address"
        },
        {
          "indexed": true,
          "internalType": "address",
          "name": "operator",
          "type": "address"
        },
        {
          "indexed": false,
          "internalType": "bool",
          "name": "approved",
          "type": "bool"
        }
      ],
      "name": "ApprovalForAll",
      "type": "event"
    },
    {
      "anonymous": false,
      "inputs": [
        {
          "indexed": true,
          "internalType": "address",
          "name": "from",
          "type": "address"
        },
        {
          "indexed": true,
          "internalType": "address",
          "name": "to",
          "type": "address"
        },
        {
          "indexed": true,
          "internalType": "uint256",
          "name": "tokenId",
          "type": "uint256"
        }
      ],
      "name": "Transfer",
      "type": "event"
    },
    {
      "inputs": [
        {
          "internalType": "address",
          "name": "to",
          "type": "address"
        },
        {
          "internalType": "uint256",
          "name": "tokenId",
          "type": "uint256"
        }
      ],
      "name": "approve",
      "outputs": [],
      "stateMutability": "nonpayable",
      "type": "function"
    },
    {
      "inputs": [
        {
          "internalType": "address",
          "name": "owner",
          "type": "address"
        }
      ],
      "name": "balanceOf",
      "outputs": [
        {
          "internalType": "uint256",
          "name": "",
          "type": "uint256"
        }
      ],
      "stateMutability": "view",
      "type": "function",
      "constant": true
    },
    {
      "inputs": [
        {
          "internalType": "uint256",
          "name": "tokenId",
          "type": "uint256"
        }
      ],
      "name": "getApproved",
      "outputs": [
        {
          "internalType": "address",
          "name": "",
          "type": "address"
        }
      ],
      "stateMutability": "view",
      "type": "function",
      "constant": true
    },
    {
      "inputs": [
        {
          "internalType": "address",
          "name": "owner",
          "type": "address"
        },
        {
          "internalType": "address",
          "name": "operator",
          "type": "address"
        }
      ],
      "name": "isApprovedForAll",
      "outputs": [
        {
          "internalType": "bool",
          "name": "",
          "type": "bool"
        }
      ],
      "stateMutability": "view",
      "type": "function",
      "constant": true
    },
    {
      "inputs": [],
      "name": "name",
      "outputs": [
        {
          "internalType": "string",
          "name": "",
          "type": "string"
        }
      ],
      "stateMutability": "view",
      "type": "function",
      "constant": true
    },
    {
      "inputs": [
        {
          "internalType": "uint256",
          "name": "tokenId",
          "type": "uint256"
        }
      ],
      "name": "ownerOf",
      "outputs": [
        {
          "internalType": "address",
          "name": "",
          "type": "address"
        }
      ],
      "stateMutability": "view",
      "type": "function",
      "constant": true
    },
    {
      "inputs": [
        {
          "internalType": "address",
          "name": "from",
          "type": "address"
        },
        {
          "internalType": "address",
          "name": "to",
          "type": "address"
        },
        {
          "internalType": "uint256",
          "name": "tokenId",
          "type": "uint256"
        }
      ],
      "name": "safeTransferFrom",
      "outputs": [],
      "stateMutability": "nonpayable",
      "type": "function"
    },
    {
      "inputs": [
        {
          "internalType": "address",
          "name": "from",
          "type": "address"
        },
        {
          "internalType": "address",
          "name": "to",
          "type": "address"
        },
        {
          "internalType": "uint256",
          "name": "tokenId",
          "type": "uint256"
        },
        {
          "internalType": "bytes",
          "name": "_data",
          "type": "bytes"
        }
      ],
      "name": "safeTransferFrom",
      "outputs": [],
      "stateMutability": "nonpayable",
      "type": "function"
    },
    {
      "inputs": [
        {
          "internalType": "address",
          "name": "operator",
          "type": "address"
        },
        {
          "internalType": "bool",
          "name": "approved",
          "type": "bool"
        }
      ],
      "name": "setApprovalForAll",
      "outputs": [],
      "stateMutability": "nonpayable",
      "type": "function"
    },
    {
      "inputs": [
        {
          "internalType": "bytes4",
          "name": "interfaceId",
          "type": "bytes4"
        }
      ],
      "name": "supportsInterface",
      "outputs": [
        {
          "internalType": "bool",
          "name": "",
          "type": "bool"
        }
      ],
      "stateMutability": "view",
      "type": "function",
      "constant": true
    },
    {
      "inputs": [],
      "name": "symbol",
      "outputs": [
        {
          "internalType": "string",
          "name": "",
          "type": "string"
        }
      ],
      "stateMutability": "view",
      "type": "function",
      "constant": true
    },
    {
      "inputs": [
        {
          "internalType": "uint256",
          "name": "tokenId",
          "type": "uint256"
        }
      ],
      "name": "tokenURI",
      "outputs": [
        {
          "internalType": "string",
          "name": "",
          "type": "string"
        }
      ],
      "stateMutability": "view",
      "type": "function",
      "constant": true
    },
    {
      "inputs": [
        {
          "internalType": "address",
          "name": "from",
          "type": "address"
        },
        {
          "internalType": "address",
          "name": "to",
          "type": "address"
        },
        {
          "internalType": "uint256",
          "name": "tokenId",
          "type": "uint256"
        }
      ],
      "name": "transferFrom",
      "outputs": [],
      "stateMutability": "nonpayable",
      "type": "function"
    },
    {
      "inputs": [],
      "name": "mintTestNFT",
      "outputs": [],
      "stateMutability": "nonpayable",
      "type": "function"
    },
    {
      "inputs": [],
      "name": "getLastTokenID",
      "outputs": [
        {
          "internalType": "uint256",
          "name": "",
          "type": "uint256"
        }
      ],
      "stateMutability": "view",
      "type": "function",
      "constant": true
    }
  ],
  "bytecode": "0x60806040523480156200001157600080fd5b506040518060400160405280600881526020017f546573744e4654730000000000000000000000000000000000000000000000008152506040518060400160405280600781526020017f546573744e465400000000000000000000000000000000000000000000000000815250816000908051906020019062000096929190620000b8565b508060019080519060200190620000af929190620000b8565b505050620001cd565b828054620000c69062000168565b90600052602060002090601f016020900481019282620000ea576000855562000136565b82601f106200010557805160ff191683800117855562000136565b8280016001018555821562000136579182015b828111156200013557825182559160200191906001019062000118565b5b50905062000145919062000149565b5090565b5b80821115620001645760008160009055506001016200014a565b5090565b600060028204905060018216806200018157607f821691505b602082108114156200019857620001976200019e565b5b50919050565b7f4e487b7100000000000000000000000000000000000000000000000000000000600052602260045260246000fd5b61272480620001dd6000396000f3fe608060405234801561001057600080fd5b50600436106100f55760003560e01c80636352211e11610097578063a22cb46511610066578063a22cb46514610272578063b88d4fde1461028e578063c87b56dd146102aa578063e985e9c5146102da576100f5565b80636352211e146101ea57806370a082311461021a5780637741b3bc1461024a57806395d89b4114610254576100f5565b8063095ea7b3116100d3578063095ea7b3146101785780630e0941371461019457806323b872dd146101b257806342842e0e146101ce576100f5565b806301ffc9a7146100fa57806306fdde031461012a578063081812fc14610148575b600080fd5b610114600480360381019061010f9190611994565b61030a565b60405161012191906120cc565b60405180910390f35b6101326103ec565b60405161013f91906120e7565b60405180910390f35b610162600480360381019061015d91906119e6565b61047e565b60405161016f9190612065565b60405180910390f35b610192600480360381019061018d9190611958565b610503565b005b61019c61061b565b6040516101a991906122e9565b60405180910390f35b6101cc60048036038101906101c79190611852565b610675565b005b6101e860048036038101906101e39190611852565b6106d5565b005b61020460048036038101906101ff91906119e6565b6106f5565b6040516102119190612065565b60405180910390f35b610234600480360381019061022f91906117ed565b6107a7565b60405161024191906122e9565b60405180910390f35b61025261085f565b005b61025c610885565b60405161026991906120e7565b60405180910390f35b61028c6004803603810190610287919061191c565b610917565b005b6102a860048036038101906102a391906118a1565b610a98565b005b6102c460048036038101906102bf91906119e6565b610afa565b6040516102d191906120e7565b60405180910390f35b6102f460048036038101906102ef9190611816565b610ba1565b60405161030191906120cc565b60405180910390f35b60007f80ac58cd000000000000000000000000000000000000000000000000000000007bffffffffffffffffffffffffffffffffffffffffffffffffffffffff1916827bffffffffffffffffffffffffffffffffffffffffffffffffffffffff191614806103d557507f5b5e139f000000000000000000000000000000000000000000000000000000007bffffffffffffffffffffffffffffffffffffffffffffffffffffffff1916827bffffffffffffffffffffffffffffffffffffffffffffffffffffffff1916145b806103e557506103e482610c35565b5b9050919050565b6060600080546103fb90612519565b80601f016020809104026020016040519081016040528092919081815260200182805461042790612519565b80156104745780601f1061044957610100808354040283529160200191610474565b820191906000526020600020905b81548152906001019060200180831161045757829003601f168201915b5050505050905090565b600061048982610c9f565b6104c8576040517f08c379a00000000000000000000000000000000000000000000000000000000081526004016104bf90612229565b60405180910390fd5b6004600083815260200190815260200160002060009054906101000a900473ffffffffffffffffffffffffffffffffffffffff169050919050565b600061050e826106f5565b90508073ffffffffffffffffffffffffffffffffffffffff168373ffffffffffffffffffffffffffffffffffffffff16141561057f576040517f08c379a000000000000000000000000000000000000000000000000000000000815260040161057690612289565b60405180910390fd5b8073ffffffffffffffffffffffffffffffffffffffff1661059e610d0b565b73ffffffffffffffffffffffffffffffffffffffff1614806105cd57506105cc816105c7610d0b565b610ba1565b5b61060c576040517f08c379a0000000000000000000000000000000000000000000000000000000008152600401610603906121a9565b60405180910390fd5b6106168383610d13565b505050565b60008060065411610661576040517f08c379a0000000000000000000000000000000000000000000000000000000008152600401610658906122c9565b60405180910390fd5b6001600654610670919061242f565b905090565b610686610680610d0b565b82610dcc565b6106c5576040517f08c379a00000000000000000000000000000000000000000000000000000000081526004016106bc906122a9565b60405180910390fd5b6106d0838383610eaa565b505050565b6106f083838360405180602001604052806000815250610a98565b505050565b6000806002600084815260200190815260200160002060009054906101000a900473ffffffffffffffffffffffffffffffffffffffff169050600073ffffffffffffffffffffffffffffffffffffffff168173ffffffffffffffffffffffffffffffffffffffff16141561079e576040517f08c379a0000000000000000000000000000000000000000000000000000000008152600401610795906121e9565b60405180910390fd5b80915050919050565b60008073ffffffffffffffffffffffffffffffffffffffff168273ffffffffffffffffffffffffffffffffffffffff161415610818576040517f08c379a000000000000000000000000000000000000000000000000000000000815260040161080f906121c9565b60405180910390fd5b600360008373ffffffffffffffffffffffffffffffffffffffff1673ffffffffffffffffffffffffffffffffffffffff168152602001908152602001600020549050919050565b61086b33600654611106565b6006600081548092919061087e9061254b565b9190505550565b60606001805461089490612519565b80601f01602080910402602001604051908101604052809291908181526020018280546108c090612519565b801561090d5780601f106108e25761010080835404028352916020019161090d565b820191906000526020600020905b8154815290600101906020018083116108f057829003601f168201915b5050505050905090565b61091f610d0b565b73ffffffffffffffffffffffffffffffffffffffff168273ffffffffffffffffffffffffffffffffffffffff16141561098d576040517f08c379a000000000000000000000000000000000000000000000000000000000815260040161098490612169565b60405180910390fd5b806005600061099a610d0b565b73ffffffffffffffffffffffffffffffffffffffff1673ffffffffffffffffffffffffffffffffffffffff16815260200190815260200160002060008473ffffffffffffffffffffffffffffffffffffffff1673ffffffffffffffffffffffffffffffffffffffff16815260200190815260200160002060006101000a81548160ff0219169083151502179055508173ffffffffffffffffffffffffffffffffffffffff16610a47610d0b565b73ffffffffffffffffffffffffffffffffffffffff167f17307eab39ab6107e8899845ad3d59bd9653f200f220920489ca2b5937696c3183604051610a8c91906120cc565b60405180910390a35050565b610aa9610aa3610d0b565b83610dcc565b610ae8576040517f08c379a0000000000000000000000000000000000000000000000000000000008152600401610adf906122a9565b60405180910390fd5b610af484848484611124565b50505050565b6060610b0582610c9f565b610b44576040517f08c379a0000000000000000000000000000000000000000000000000000000008152600401610b3b90612269565b60405180910390fd5b6000610b4e611180565b90506000815111610b6e5760405180602001604052806000815250610b99565b80610b7884611197565b604051602001610b89929190612041565b6040516020818303038152906040525b915050919050565b6000600560008473ffffffffffffffffffffffffffffffffffffffff1673ffffffffffffffffffffffffffffffffffffffff16815260200190815260200160002060008373ffffffffffffffffffffffffffffffffffffffff1673ffffffffffffffffffffffffffffffffffffffff16815260200190815260200160002060009054906101000a900460ff16905092915050565b60007f01ffc9a7000000000000000000000000000000000000000000000000000000007bffffffffffffffffffffffffffffffffffffffffffffffffffffffff1916827bffffffffffffffffffffffffffffffffffffffffffffffffffffffff1916149050919050565b60008073ffffffffffffffffffffffffffffffffffffffff166002600084815260200190815260200160002060009054906101000a900473ffffffffffffffffffffffffffffffffffffffff1673ffffffffffffffffffffffffffffffffffffffff1614159050919050565b600033905090565b816004600083815260200190815260200160002060006101000a81548173ffffffffffffffffffffffffffffffffffffffff021916908373ffffffffffffffffffffffffffffffffffffffff160217905550808273ffffffffffffffffffffffffffffffffffffffff16610d86836106f5565b73ffffffffffffffffffffffffffffffffffffffff167f8c5be1e5ebec7d5bd14f71427d1e84f3dd0314c0f7b2291e5b200ac8c7c3b92560405160405180910390a45050565b6000610dd782610c9f565b610e16576040517f08c379a0000000000000000000000000000000000000000000000000000000008152600401610e0d90612189565b60405180910390fd5b6000610e21836106f5565b90508073ffffffffffffffffffffffffffffffffffffffff168473ffffffffffffffffffffffffffffffffffffffff161480610e9057508373ffffffffffffffffffffffffffffffffffffffff16610e788461047e565b73ffffffffffffffffffffffffffffffffffffffff16145b80610ea15750610ea08185610ba1565b5b91505092915050565b8273ffffffffffffffffffffffffffffffffffffffff16610eca826106f5565b73ffffffffffffffffffffffffffffffffffffffff1614610f20576040517f08c379a0000000000000000000000000000000000000000000000000000000008152600401610f1790612249565b60405180910390fd5b600073ffffffffffffffffffffffffffffffffffffffff168273ffffffffffffffffffffffffffffffffffffffff161415610f90576040517f08c379a0000000000000000000000000000000000000000000000000000000008152600401610f8790612149565b60405180910390fd5b610f9b838383611344565b610fa6600082610d13565b6001600360008573ffffffffffffffffffffffffffffffffffffffff1673ffffffffffffffffffffffffffffffffffffffff1681526020019081526020016000206000828254610ff6919061242f565b925050819055506001600360008473ffffffffffffffffffffffffffffffffffffffff1673ffffffffffffffffffffffffffffffffffffffff168152602001908152602001600020600082825461104d91906123a8565b92505081905550816002600083815260200190815260200160002060006101000a81548173ffffffffffffffffffffffffffffffffffffffff021916908373ffffffffffffffffffffffffffffffffffffffff160217905550808273ffffffffffffffffffffffffffffffffffffffff168473ffffffffffffffffffffffffffffffffffffffff167fddf252ad1be2c89b69c2b068fc378daa952ba7f163c4a11628f55a4df523b3ef60405160405180910390a4505050565b611120828260405180602001604052806000815250611349565b5050565b61112f848484610eaa565b61113b848484846113a4565b61117a576040517f08c379a000000000000000000000000000000000000000000000000000000000815260040161117190612109565b60405180910390fd5b50505050565b606060405180602001604052806000815250905090565b606060008214156111df576040518060400160405280600181526020017f3000000000000000000000000000000000000000000000000000000000000000815250905061133f565b600082905060005b600082146112115780806111fa9061254b565b915050600a8261120a91906123fe565b91506111e7565b60008167ffffffffffffffff811115611253577f4e487b7100000000000000000000000000000000000000000000000000000000600052604160045260246000fd5b6040519080825280601f01601f1916602001820160405280156112855781602001600182028036833780820191505090505b5090505b600085146113385760018261129e919061242f565b9150600a856112ad9190612594565b60306112b991906123a8565b60f81b8183815181106112f5577f4e487b7100000000000000000000000000000000000000000000000000000000600052603260045260246000fd5b60200101907effffffffffffffffffffffffffffffffffffffffffffffffffffffffffffff1916908160001a905350600a8561133191906123fe565b9450611289565b8093505050505b919050565b505050565b611353838361153b565b61136060008484846113a4565b61139f576040517f08c379a000000000000000000000000000000000000000000000000000000000815260040161139690612109565b60405180910390fd5b505050565b60006113c58473ffffffffffffffffffffffffffffffffffffffff16611709565b1561152e578373ffffffffffffffffffffffffffffffffffffffff1663150b7a026113ee610d0b565b8786866040518563ffffffff1660e01b81526004016114109493929190612080565b602060405180830381600087803b15801561142a57600080fd5b505af192505050801561145b57506040513d601f19601f8201168201806040525081019061145891906119bd565b60015b6114de573d806000811461148b576040519150601f19603f3d011682016040523d82523d6000602084013e611490565b606091505b506000815114156114d6576040517f08c379a00000000000000000000000000000000000000000000000000000000081526004016114cd90612109565b60405180910390fd5b805181602001fd5b63150b7a0260e01b7bffffffffffffffffffffffffffffffffffffffffffffffffffffffff1916817bffffffffffffffffffffffffffffffffffffffffffffffffffffffff191614915050611533565b600190505b949350505050565b600073ffffffffffffffffffffffffffffffffffffffff168273ffffffffffffffffffffffffffffffffffffffff1614156115ab576040517f08c379a00000000000000000000000000000000000000000000000000000000081526004016115a290612209565b60405180910390fd5b6115b481610c9f565b156115f4576040517f08c379a00000000000000000000000000000000000000000000000000000000081526004016115eb90612129565b60405180910390fd5b61160060008383611344565b6001600360008473ffffffffffffffffffffffffffffffffffffffff1673ffffffffffffffffffffffffffffffffffffffff168152602001908152602001600020600082825461165091906123a8565b92505081905550816002600083815260200190815260200160002060006101000a81548173ffffffffffffffffffffffffffffffffffffffff021916908373ffffffffffffffffffffffffffffffffffffffff160217905550808273ffffffffffffffffffffffffffffffffffffffff16600073ffffffffffffffffffffffffffffffffffffffff167fddf252ad1be2c89b69c2b068fc378daa952ba7f163c4a11628f55a4df523b3ef60405160405180910390a45050565b600080823b905060008111915050919050565b600061172f61172a84612335565b612304565b90508281526020810184848401111561174757600080fd5b6117528482856124d7565b509392505050565b60008135905061176981612692565b92915050565b60008135905061177e816126a9565b92915050565b600081359050611793816126c0565b92915050565b6000815190506117a8816126c0565b92915050565b600082601f8301126117bf57600080fd5b81356117cf84826020860161171c565b91505092915050565b6000813590506117e7816126d7565b92915050565b6000602082840312156117ff57600080fd5b600061180d8482850161175a565b91505092915050565b6000806040838503121561182957600080fd5b60006118378582860161175a565b92505060206118488582860161175a565b9150509250929050565b60008060006060848603121561186757600080fd5b60006118758682870161175a565b93505060206118868682870161175a565b9250506040611897868287016117d8565b9150509250925092565b600080600080608085870312156118b757600080fd5b60006118c58782880161175a565b94505060206118d68782880161175a565b93505060406118e7878288016117d8565b925050606085013567ffffffffffffffff81111561190457600080fd5b611910878288016117ae565b91505092959194509250565b6000806040838503121561192f57600080fd5b600061193d8582860161175a565b925050602061194e8582860161176f565b9150509250929050565b6000806040838503121561196b57600080fd5b60006119798582860161175a565b925050602061198a858286016117d8565b9150509250929050565b6000602082840312156119a657600080fd5b60006119b484828501611784565b91505092915050565b6000602082840312156119cf57600080fd5b60006119dd84828501611799565b91505092915050565b6000602082840312156119f857600080fd5b6000611a06848285016117d8565b91505092915050565b611a1881612463565b82525050565b611a2781612475565b82525050565b6000611a3882612365565b611a42818561237b565b9350611a528185602086016124e6565b611a5b81612681565b840191505092915050565b6000611a7182612370565b611a7b818561238c565b9350611a8b8185602086016124e6565b611a9481612681565b840191505092915050565b6000611aaa82612370565b611ab4818561239d565b9350611ac48185602086016124e6565b80840191505092915050565b6000611add60328361238c565b91507f4552433732313a207472616e7366657220746f206e6f6e20455243373231526560008301527f63656976657220696d706c656d656e74657200000000000000000000000000006020830152604082019050919050565b6000611b43601c8361238c565b91507f4552433732313a20746f6b656e20616c7265616479206d696e746564000000006000830152602082019050919050565b6000611b8360248361238c565b91507f4552433732313a207472616e7366657220746f20746865207a65726f2061646460008301527f72657373000000000000000000000000000000000000000000000000000000006020830152604082019050919050565b6000611be960198361238c565b91507f4552433732313a20617070726f766520746f2063616c6c6572000000000000006000830152602082019050919050565b6000611c29602c8361238c565b91507f4552433732313a206f70657261746f7220717565727920666f72206e6f6e657860008301527f697374656e7420746f6b656e00000000000000000000000000000000000000006020830152604082019050919050565b6000611c8f60388361238c565b91507f4552433732313a20617070726f76652063616c6c6572206973206e6f74206f7760008301527f6e6572206e6f7220617070726f76656420666f7220616c6c00000000000000006020830152604082019050919050565b6000611cf5602a8361238c565b91507f4552433732313a2062616c616e636520717565727920666f7220746865207a6560008301527f726f2061646472657373000000000000000000000000000000000000000000006020830152604082019050919050565b6000611d5b60298361238c565b91507f4552433732313a206f776e657220717565727920666f72206e6f6e657869737460008301527f656e7420746f6b656e00000000000000000000000000000000000000000000006020830152604082019050919050565b6000611dc160208361238c565b91507f4552433732313a206d696e7420746f20746865207a65726f20616464726573736000830152602082019050919050565b6000611e01602c8361238c565b91507f4552433732313a20617070726f76656420717565727920666f72206e6f6e657860008301527f697374656e7420746f6b656e00000000000000000000000000000000000000006020830152604082019050919050565b6000611e6760298361238c565b91507f4552433732313a207472616e73666572206f6620746f6b656e2074686174206960008301527f73206e6f74206f776e00000000000000000000000000000000000000000000006020830152604082019050919050565b6000611ecd602f8361238c565b91507f4552433732314d657461646174613a2055524920717565727920666f72206e6f60008301527f6e6578697374656e7420746f6b656e00000000000000000000000000000000006020830152604082019050919050565b6000611f3360218361238c565b91507f4552433732313a20617070726f76616c20746f2063757272656e74206f776e6560008301527f72000000000000000000000000000000000000000000000000000000000000006020830152604082019050919050565b6000611f9960318361238c565b91507f4552433732313a207472616e736665722063616c6c6572206973206e6f74206f60008301527f776e6572206e6f7220617070726f7665640000000000000000000000000000006020830152604082019050919050565b6000611fff60148361238c565b91507f4e6f7468696e67206d696e7465642c207965742e0000000000000000000000006000830152602082019050919050565b61203b816124cd565b82525050565b600061204d8285611a9f565b91506120598284611a9f565b91508190509392505050565b600060208201905061207a6000830184611a0f565b92915050565b60006080820190506120956000830187611a0f565b6120a26020830186611a0f565b6120af6040830185612032565b81810360608301526120c18184611a2d565b905095945050505050565b60006020820190506120e16000830184611a1e565b92915050565b600060208201905081810360008301526121018184611a66565b905092915050565b6000602082019050818103600083015261212281611ad0565b9050919050565b6000602082019050818103600083015261214281611b36565b9050919050565b6000602082019050818103600083015261216281611b76565b9050919050565b6000602082019050818103600083015261218281611bdc565b9050919050565b600060208201905081810360008301526121a281611c1c565b9050919050565b600060208201905081810360008301526121c281611c82565b9050919050565b600060208201905081810360008301526121e281611ce8565b9050919050565b6000602082019050818103600083015261220281611d4e565b9050919050565b6000602082019050818103600083015261222281611db4565b9050919050565b6000602082019050818103600083015261224281611df4565b9050919050565b6000602082019050818103600083015261226281611e5a565b9050919050565b6000602082019050818103600083015261228281611ec0565b9050919050565b600060208201905081810360008301526122a281611f26565b9050919050565b600060208201905081810360008301526122c281611f8c565b9050919050565b600060208201905081810360008301526122e281611ff2565b9050919050565b60006020820190506122fe6000830184612032565b92915050565b6000604051905081810181811067ffffffffffffffff8211171561232b5761232a612652565b5b8060405250919050565b600067ffffffffffffffff8211156123505761234f612652565b5b601f19601f8301169050602081019050919050565b600081519050919050565b600081519050919050565b600082825260208201905092915050565b600082825260208201905092915050565b600081905092915050565b60006123b3826124cd565b91506123be836124cd565b9250827fffffffffffffffffffffffffffffffffffffffffffffffffffffffffffffffff038211156123f3576123f26125c5565b5b828201905092915050565b6000612409826124cd565b9150612414836124cd565b925082612424576124236125f4565b5b828204905092915050565b600061243a826124cd565b9150612445836124cd565b925082821015612458576124576125c5565b5b828203905092915050565b600061246e826124ad565b9050919050565b60008115159050919050565b60007fffffffff0000000000000000000000000000000000000000000000000000000082169050919050565b600073ffffffffffffffffffffffffffffffffffffffff82169050919050565b6000819050919050565b82818337600083830152505050565b60005b838110156125045780820151818401526020810190506124e9565b83811115612513576000848401525b50505050565b6000600282049050600182168061253157607f821691505b6020821081141561254557612544612623565b5b50919050565b6000612556826124cd565b91507fffffffffffffffffffffffffffffffffffffffffffffffffffffffffffffffff821415612589576125886125c5565b5b600182019050919050565b600061259f826124cd565b91506125aa836124cd565b9250826125ba576125b96125f4565b5b828206905092915050565b7f4e487b7100000000000000000000000000000000000000000000000000000000600052601160045260246000fd5b7f4e487b7100000000000000000000000000000000000000000000000000000000600052601260045260246000fd5b7f4e487b7100000000000000000000000000000000000000000000000000000000600052602260045260246000fd5b7f4e487b7100000000000000000000000000000000000000000000000000000000600052604160045260246000fd5b6000601f19601f8301169050919050565b61269b81612463565b81146126a657600080fd5b50565b6126b281612475565b81146126bd57600080fd5b50565b6126c981612481565b81146126d457600080fd5b50565b6126e0816124cd565b81146126eb57600080fd5b5056fea2646970667358221220f70c2eeba70c9660dae3c2ee44e7c4698c095c1e7dcf09cc4267bf8aebb343e064736f6c63430008000033",
  "immutableReferences": {},
  "source": "// SPDX-License-Identifier: MIT\npragma solidity ^0.8.0;\n\nimport \"@openzeppelin/contracts/token/ERC721/ERC721.sol\";\n\ncontract TestNFTs is ERC721 {\n  uint256 private tokenID;\n\n  constructor() ERC721(\"TestNFTs\", \"TestNFT\") {}\n\n  function mintTestNFT() public {\n    _safeMint(msg.sender, tokenID);\n    tokenID++;\n  }\n\n  function getLastTokenID() public view returns (uint256) {\n    require(tokenID > 0, \"Nothing minted, yet.\");\n    return tokenID - 1;\n  }\n}\n",
  "sourcePath": "/Users/mareike/ConsenSys/blockchain-developer-bootcamp-final-project/contracts/TestNFTs.sol",
  "compiler": {
    "name": "solc",
    "version": "0.8.0+commit.c7dfd78e.Emscripten.clang"
  },
  "schemaVersion": "3.4.3",
  "updatedAt": "2021-11-26T18:20:28.742Z",
  "networkType": "ethereum",
  "devdoc": {
    "kind": "dev",
    "methods": {
      "approve(address,uint256)": {
        "details": "See {IERC721-approve}."
      },
      "balanceOf(address)": {
        "details": "See {IERC721-balanceOf}."
      },
      "getApproved(uint256)": {
        "details": "See {IERC721-getApproved}."
      },
      "isApprovedForAll(address,address)": {
        "details": "See {IERC721-isApprovedForAll}."
      },
      "name()": {
        "details": "See {IERC721Metadata-name}."
      },
      "ownerOf(uint256)": {
        "details": "See {IERC721-ownerOf}."
      },
      "safeTransferFrom(address,address,uint256)": {
        "details": "See {IERC721-safeTransferFrom}."
      },
      "safeTransferFrom(address,address,uint256,bytes)": {
        "details": "See {IERC721-safeTransferFrom}."
      },
      "setApprovalForAll(address,bool)": {
        "details": "See {IERC721-setApprovalForAll}."
      },
      "supportsInterface(bytes4)": {
        "details": "See {IERC165-supportsInterface}."
      },
      "symbol()": {
        "details": "See {IERC721Metadata-symbol}."
      },
      "tokenURI(uint256)": {
        "details": "See {IERC721Metadata-tokenURI}."
      },
      "transferFrom(address,address,uint256)": {
        "details": "See {IERC721-transferFrom}."
      }
    },
    "version": 1
  },
  "userdoc": {
    "kind": "user",
    "methods": {},
    "version": 1
  }
}