{
  "contractName": "TestNFTs",
  "abi": [
    {
      "inputs": [],
      "stateMutability": "nonpayable",
      "type": "constructor"
    },
    {
      "anonymous": false,
      "inputs": [
        {
          "indexed": true,
          "internalType": "address",
          "name": "owner",
          "type": "address"
        },
        {
          "indexed": true,
          "internalType": "address",
          "name": "approved",
          "type": "address"
        },
        {
          "indexed": true,
          "internalType": "uint256",
          "name": "tokenId",
          "type": "uint256"
        }
      ],
      "name": "Approval",
      "type": "event"
    },
    {
      "anonymous": false,
      "inputs": [
        {
          "indexed": true,
          "internalType": "address",
          "name": "owner",
          "type": "address"
        },
        {
          "indexed": true,
          "internalType": "address",
          "name": "operator",
          "type": "address"
        },
        {
          "indexed": false,
          "internalType": "bool",
          "name": "approved",
          "type": "bool"
        }
      ],
      "name": "ApprovalForAll",
      "type": "event"
    },
    {
      "anonymous": false,
      "inputs": [
        {
          "indexed": true,
          "internalType": "address",
          "name": "from",
          "type": "address"
        },
        {
          "indexed": true,
          "internalType": "address",
          "name": "to",
          "type": "address"
        },
        {
          "indexed": true,
          "internalType": "uint256",
          "name": "tokenId",
          "type": "uint256"
        }
      ],
      "name": "Transfer",
      "type": "event"
    },
    {
      "inputs": [
        {
          "internalType": "address",
          "name": "to",
          "type": "address"
        },
        {
          "internalType": "uint256",
          "name": "tokenId",
          "type": "uint256"
        }
      ],
      "name": "approve",
      "outputs": [],
      "stateMutability": "nonpayable",
      "type": "function"
    },
    {
      "inputs": [
        {
          "internalType": "address",
          "name": "owner",
          "type": "address"
        }
      ],
      "name": "balanceOf",
      "outputs": [
        {
          "internalType": "uint256",
          "name": "",
          "type": "uint256"
        }
      ],
      "stateMutability": "view",
      "type": "function",
      "constant": true
    },
    {
      "inputs": [
        {
          "internalType": "uint256",
          "name": "tokenId",
          "type": "uint256"
        }
      ],
      "name": "getApproved",
      "outputs": [
        {
          "internalType": "address",
          "name": "",
          "type": "address"
        }
      ],
      "stateMutability": "view",
      "type": "function",
      "constant": true
    },
    {
      "inputs": [
        {
          "internalType": "address",
          "name": "owner",
          "type": "address"
        },
        {
          "internalType": "address",
          "name": "operator",
          "type": "address"
        }
      ],
      "name": "isApprovedForAll",
      "outputs": [
        {
          "internalType": "bool",
          "name": "",
          "type": "bool"
        }
      ],
      "stateMutability": "view",
      "type": "function",
      "constant": true
    },
    {
      "inputs": [],
      "name": "name",
      "outputs": [
        {
          "internalType": "string",
          "name": "",
          "type": "string"
        }
      ],
      "stateMutability": "view",
      "type": "function",
      "constant": true
    },
    {
      "inputs": [
        {
          "internalType": "uint256",
          "name": "tokenId",
          "type": "uint256"
        }
      ],
      "name": "ownerOf",
      "outputs": [
        {
          "internalType": "address",
          "name": "",
          "type": "address"
        }
      ],
      "stateMutability": "view",
      "type": "function",
      "constant": true
    },
    {
      "inputs": [
        {
          "internalType": "address",
          "name": "from",
          "type": "address"
        },
        {
          "internalType": "address",
          "name": "to",
          "type": "address"
        },
        {
          "internalType": "uint256",
          "name": "tokenId",
          "type": "uint256"
        }
      ],
      "name": "safeTransferFrom",
      "outputs": [],
      "stateMutability": "nonpayable",
      "type": "function"
    },
    {
      "inputs": [
        {
          "internalType": "address",
          "name": "from",
          "type": "address"
        },
        {
          "internalType": "address",
          "name": "to",
          "type": "address"
        },
        {
          "internalType": "uint256",
          "name": "tokenId",
          "type": "uint256"
        },
        {
          "internalType": "bytes",
          "name": "_data",
          "type": "bytes"
        }
      ],
      "name": "safeTransferFrom",
      "outputs": [],
      "stateMutability": "nonpayable",
      "type": "function"
    },
    {
      "inputs": [
        {
          "internalType": "address",
          "name": "operator",
          "type": "address"
        },
        {
          "internalType": "bool",
          "name": "approved",
          "type": "bool"
        }
      ],
      "name": "setApprovalForAll",
      "outputs": [],
      "stateMutability": "nonpayable",
      "type": "function"
    },
    {
      "inputs": [
        {
          "internalType": "bytes4",
          "name": "interfaceId",
          "type": "bytes4"
        }
      ],
      "name": "supportsInterface",
      "outputs": [
        {
          "internalType": "bool",
          "name": "",
          "type": "bool"
        }
      ],
      "stateMutability": "view",
      "type": "function",
      "constant": true
    },
    {
      "inputs": [],
      "name": "symbol",
      "outputs": [
        {
          "internalType": "string",
          "name": "",
          "type": "string"
        }
      ],
      "stateMutability": "view",
      "type": "function",
      "constant": true
    },
    {
      "inputs": [
        {
          "internalType": "uint256",
          "name": "tokenId",
          "type": "uint256"
        }
      ],
      "name": "tokenURI",
      "outputs": [
        {
          "internalType": "string",
          "name": "",
          "type": "string"
        }
      ],
      "stateMutability": "view",
      "type": "function",
      "constant": true
    },
    {
      "inputs": [
        {
          "internalType": "address",
          "name": "from",
          "type": "address"
        },
        {
          "internalType": "address",
          "name": "to",
          "type": "address"
        },
        {
          "internalType": "uint256",
          "name": "tokenId",
          "type": "uint256"
        }
      ],
      "name": "transferFrom",
      "outputs": [],
      "stateMutability": "nonpayable",
      "type": "function"
    },
    {
      "inputs": [],
      "name": "mintTestNFT",
      "outputs": [],
      "stateMutability": "nonpayable",
      "type": "function"
    }
  ],
  "bytecode": "0x60806040523480156200001157600080fd5b506040518060400160405280600881526020017f546573744e4654730000000000000000000000000000000000000000000000008152506040518060400160405280600781526020017f546573744e465400000000000000000000000000000000000000000000000000815250816000908051906020019062000096929190620000b8565b508060019080519060200190620000af929190620000b8565b505050620001cd565b828054620000c69062000168565b90600052602060002090601f016020900481019282620000ea576000855562000136565b82601f106200010557805160ff191683800117855562000136565b8280016001018555821562000136579182015b828111156200013557825182559160200191906001019062000118565b5b50905062000145919062000149565b5090565b5b80821115620001645760008160009055506001016200014a565b5090565b600060028204905060018216806200018157607f821691505b602082108114156200019857620001976200019e565b5b50919050565b7f4e487b7100000000000000000000000000000000000000000000000000000000600052602260045260246000fd5b61264180620001dd6000396000f3fe608060405234801561001057600080fd5b50600436106100ea5760003560e01c806370a082311161008c578063a22cb46511610066578063a22cb46514610249578063b88d4fde14610265578063c87b56dd14610281578063e985e9c5146102b1576100ea565b806370a08231146101f15780637741b3bc1461022157806395d89b411461022b576100ea565b8063095ea7b3116100c8578063095ea7b31461016d57806323b872dd1461018957806342842e0e146101a55780636352211e146101c1576100ea565b806301ffc9a7146100ef57806306fdde031461011f578063081812fc1461013d575b600080fd5b61010960048036038101906101049190611911565b6102e1565b6040516101169190612009565b60405180910390f35b6101276103c3565b6040516101349190612024565b60405180910390f35b61015760048036038101906101529190611963565b610455565b6040516101649190611fa2565b60405180910390f35b610187600480360381019061018291906118d5565b6104da565b005b6101a3600480360381019061019e91906117cf565b6105f2565b005b6101bf60048036038101906101ba91906117cf565b610652565b005b6101db60048036038101906101d69190611963565b610672565b6040516101e89190611fa2565b60405180910390f35b61020b6004803603810190610206919061176a565b610724565b6040516102189190612206565b60405180910390f35b6102296107dc565b005b610233610802565b6040516102409190612024565b60405180910390f35b610263600480360381019061025e9190611899565b610894565b005b61027f600480360381019061027a919061181e565b610a15565b005b61029b60048036038101906102969190611963565b610a77565b6040516102a89190612024565b60405180910390f35b6102cb60048036038101906102c69190611793565b610b1e565b6040516102d89190612009565b60405180910390f35b60007f80ac58cd000000000000000000000000000000000000000000000000000000007bffffffffffffffffffffffffffffffffffffffffffffffffffffffff1916827bffffffffffffffffffffffffffffffffffffffffffffffffffffffff191614806103ac57507f5b5e139f000000000000000000000000000000000000000000000000000000007bffffffffffffffffffffffffffffffffffffffffffffffffffffffff1916827bffffffffffffffffffffffffffffffffffffffffffffffffffffffff1916145b806103bc57506103bb82610bb2565b5b9050919050565b6060600080546103d290612436565b80601f01602080910402602001604051908101604052809291908181526020018280546103fe90612436565b801561044b5780601f106104205761010080835404028352916020019161044b565b820191906000526020600020905b81548152906001019060200180831161042e57829003601f168201915b5050505050905090565b600061046082610c1c565b61049f576040517f08c379a000000000000000000000000000000000000000000000000000000000815260040161049690612166565b60405180910390fd5b6004600083815260200190815260200160002060009054906101000a900473ffffffffffffffffffffffffffffffffffffffff169050919050565b60006104e582610672565b90508073ffffffffffffffffffffffffffffffffffffffff168373ffffffffffffffffffffffffffffffffffffffff161415610556576040517f08c379a000000000000000000000000000000000000000000000000000000000815260040161054d906121c6565b60405180910390fd5b8073ffffffffffffffffffffffffffffffffffffffff16610575610c88565b73ffffffffffffffffffffffffffffffffffffffff1614806105a457506105a38161059e610c88565b610b1e565b5b6105e3576040517f08c379a00000000000000000000000000000000000000000000000000000000081526004016105da906120e6565b60405180910390fd5b6105ed8383610c90565b505050565b6106036105fd610c88565b82610d49565b610642576040517f08c379a0000000000000000000000000000000000000000000000000000000008152600401610639906121e6565b60405180910390fd5b61064d838383610e27565b505050565b61066d83838360405180602001604052806000815250610a15565b505050565b6000806002600084815260200190815260200160002060009054906101000a900473ffffffffffffffffffffffffffffffffffffffff169050600073ffffffffffffffffffffffffffffffffffffffff168173ffffffffffffffffffffffffffffffffffffffff16141561071b576040517f08c379a000000000000000000000000000000000000000000000000000000000815260040161071290612126565b60405180910390fd5b80915050919050565b60008073ffffffffffffffffffffffffffffffffffffffff168273ffffffffffffffffffffffffffffffffffffffff161415610795576040517f08c379a000000000000000000000000000000000000000000000000000000000815260040161078c90612106565b60405180910390fd5b600360008373ffffffffffffffffffffffffffffffffffffffff1673ffffffffffffffffffffffffffffffffffffffff168152602001908152602001600020549050919050565b600660008154809291906107ef90612468565b919050555061080033600654611083565b565b60606001805461081190612436565b80601f016020809104026020016040519081016040528092919081815260200182805461083d90612436565b801561088a5780601f1061085f5761010080835404028352916020019161088a565b820191906000526020600020905b81548152906001019060200180831161086d57829003601f168201915b5050505050905090565b61089c610c88565b73ffffffffffffffffffffffffffffffffffffffff168273ffffffffffffffffffffffffffffffffffffffff16141561090a576040517f08c379a0000000000000000000000000000000000000000000000000000000008152600401610901906120a6565b60405180910390fd5b8060056000610917610c88565b73ffffffffffffffffffffffffffffffffffffffff1673ffffffffffffffffffffffffffffffffffffffff16815260200190815260200160002060008473ffffffffffffffffffffffffffffffffffffffff1673ffffffffffffffffffffffffffffffffffffffff16815260200190815260200160002060006101000a81548160ff0219169083151502179055508173ffffffffffffffffffffffffffffffffffffffff166109c4610c88565b73ffffffffffffffffffffffffffffffffffffffff167f17307eab39ab6107e8899845ad3d59bd9653f200f220920489ca2b5937696c3183604051610a099190612009565b60405180910390a35050565b610a26610a20610c88565b83610d49565b610a65576040517f08c379a0000000000000000000000000000000000000000000000000000000008152600401610a5c906121e6565b60405180910390fd5b610a71848484846110a1565b50505050565b6060610a8282610c1c565b610ac1576040517f08c379a0000000000000000000000000000000000000000000000000000000008152600401610ab8906121a6565b60405180910390fd5b6000610acb6110fd565b90506000815111610aeb5760405180602001604052806000815250610b16565b80610af584611114565b604051602001610b06929190611f7e565b6040516020818303038152906040525b915050919050565b6000600560008473ffffffffffffffffffffffffffffffffffffffff1673ffffffffffffffffffffffffffffffffffffffff16815260200190815260200160002060008373ffffffffffffffffffffffffffffffffffffffff1673ffffffffffffffffffffffffffffffffffffffff16815260200190815260200160002060009054906101000a900460ff16905092915050565b60007f01ffc9a7000000000000000000000000000000000000000000000000000000007bffffffffffffffffffffffffffffffffffffffffffffffffffffffff1916827bffffffffffffffffffffffffffffffffffffffffffffffffffffffff1916149050919050565b60008073ffffffffffffffffffffffffffffffffffffffff166002600084815260200190815260200160002060009054906101000a900473ffffffffffffffffffffffffffffffffffffffff1673ffffffffffffffffffffffffffffffffffffffff1614159050919050565b600033905090565b816004600083815260200190815260200160002060006101000a81548173ffffffffffffffffffffffffffffffffffffffff021916908373ffffffffffffffffffffffffffffffffffffffff160217905550808273ffffffffffffffffffffffffffffffffffffffff16610d0383610672565b73ffffffffffffffffffffffffffffffffffffffff167f8c5be1e5ebec7d5bd14f71427d1e84f3dd0314c0f7b2291e5b200ac8c7c3b92560405160405180910390a45050565b6000610d5482610c1c565b610d93576040517f08c379a0000000000000000000000000000000000000000000000000000000008152600401610d8a906120c6565b60405180910390fd5b6000610d9e83610672565b90508073ffffffffffffffffffffffffffffffffffffffff168473ffffffffffffffffffffffffffffffffffffffff161480610e0d57508373ffffffffffffffffffffffffffffffffffffffff16610df584610455565b73ffffffffffffffffffffffffffffffffffffffff16145b80610e1e5750610e1d8185610b1e565b5b91505092915050565b8273ffffffffffffffffffffffffffffffffffffffff16610e4782610672565b73ffffffffffffffffffffffffffffffffffffffff1614610e9d576040517f08c379a0000000000000000000000000000000000000000000000000000000008152600401610e9490612186565b60405180910390fd5b600073ffffffffffffffffffffffffffffffffffffffff168273ffffffffffffffffffffffffffffffffffffffff161415610f0d576040517f08c379a0000000000000000000000000000000000000000000000000000000008152600401610f0490612086565b60405180910390fd5b610f188383836112c1565b610f23600082610c90565b6001600360008573ffffffffffffffffffffffffffffffffffffffff1673ffffffffffffffffffffffffffffffffffffffff1681526020019081526020016000206000828254610f73919061234c565b925050819055506001600360008473ffffffffffffffffffffffffffffffffffffffff1673ffffffffffffffffffffffffffffffffffffffff1681526020019081526020016000206000828254610fca91906122c5565b92505081905550816002600083815260200190815260200160002060006101000a81548173ffffffffffffffffffffffffffffffffffffffff021916908373ffffffffffffffffffffffffffffffffffffffff160217905550808273ffffffffffffffffffffffffffffffffffffffff168473ffffffffffffffffffffffffffffffffffffffff167fddf252ad1be2c89b69c2b068fc378daa952ba7f163c4a11628f55a4df523b3ef60405160405180910390a4505050565b61109d8282604051806020016040528060008152506112c6565b5050565b6110ac848484610e27565b6110b884848484611321565b6110f7576040517f08c379a00000000000000000000000000000000000000000000000000000000081526004016110ee90612046565b60405180910390fd5b50505050565b606060405180602001604052806000815250905090565b6060600082141561115c576040518060400160405280600181526020017f300000000000000000000000000000000000000000000000000000000000000081525090506112bc565b600082905060005b6000821461118e57808061117790612468565b915050600a82611187919061231b565b9150611164565b60008167ffffffffffffffff8111156111d0577f4e487b7100000000000000000000000000000000000000000000000000000000600052604160045260246000fd5b6040519080825280601f01601f1916602001820160405280156112025781602001600182028036833780820191505090505b5090505b600085146112b55760018261121b919061234c565b9150600a8561122a91906124b1565b603061123691906122c5565b60f81b818381518110611272577f4e487b7100000000000000000000000000000000000000000000000000000000600052603260045260246000fd5b60200101907effffffffffffffffffffffffffffffffffffffffffffffffffffffffffffff1916908160001a905350600a856112ae919061231b565b9450611206565b8093505050505b919050565b505050565b6112d083836114b8565b6112dd6000848484611321565b61131c576040517f08c379a000000000000000000000000000000000000000000000000000000000815260040161131390612046565b60405180910390fd5b505050565b60006113428473ffffffffffffffffffffffffffffffffffffffff16611686565b156114ab578373ffffffffffffffffffffffffffffffffffffffff1663150b7a0261136b610c88565b8786866040518563ffffffff1660e01b815260040161138d9493929190611fbd565b602060405180830381600087803b1580156113a757600080fd5b505af19250505080156113d857506040513d601f19601f820116820180604052508101906113d5919061193a565b60015b61145b573d8060008114611408576040519150601f19603f3d011682016040523d82523d6000602084013e61140d565b606091505b50600081511415611453576040517f08c379a000000000000000000000000000000000000000000000000000000000815260040161144a90612046565b60405180910390fd5b805181602001fd5b63150b7a0260e01b7bffffffffffffffffffffffffffffffffffffffffffffffffffffffff1916817bffffffffffffffffffffffffffffffffffffffffffffffffffffffff1916149150506114b0565b600190505b949350505050565b600073ffffffffffffffffffffffffffffffffffffffff168273ffffffffffffffffffffffffffffffffffffffff161415611528576040517f08c379a000000000000000000000000000000000000000000000000000000000815260040161151f90612146565b60405180910390fd5b61153181610c1c565b15611571576040517f08c379a000000000000000000000000000000000000000000000000000000000815260040161156890612066565b60405180910390fd5b61157d600083836112c1565b6001600360008473ffffffffffffffffffffffffffffffffffffffff1673ffffffffffffffffffffffffffffffffffffffff16815260200190815260200160002060008282546115cd91906122c5565b92505081905550816002600083815260200190815260200160002060006101000a81548173ffffffffffffffffffffffffffffffffffffffff021916908373ffffffffffffffffffffffffffffffffffffffff160217905550808273ffffffffffffffffffffffffffffffffffffffff16600073ffffffffffffffffffffffffffffffffffffffff167fddf252ad1be2c89b69c2b068fc378daa952ba7f163c4a11628f55a4df523b3ef60405160405180910390a45050565b600080823b905060008111915050919050565b60006116ac6116a784612252565b612221565b9050828152602081018484840111156116c457600080fd5b6116cf8482856123f4565b509392505050565b6000813590506116e6816125af565b92915050565b6000813590506116fb816125c6565b92915050565b600081359050611710816125dd565b92915050565b600081519050611725816125dd565b92915050565b600082601f83011261173c57600080fd5b813561174c848260208601611699565b91505092915050565b600081359050611764816125f4565b92915050565b60006020828403121561177c57600080fd5b600061178a848285016116d7565b91505092915050565b600080604083850312156117a657600080fd5b60006117b4858286016116d7565b92505060206117c5858286016116d7565b9150509250929050565b6000806000606084860312156117e457600080fd5b60006117f2868287016116d7565b9350506020611803868287016116d7565b925050604061181486828701611755565b9150509250925092565b6000806000806080858703121561183457600080fd5b6000611842878288016116d7565b9450506020611853878288016116d7565b935050604061186487828801611755565b925050606085013567ffffffffffffffff81111561188157600080fd5b61188d8782880161172b565b91505092959194509250565b600080604083850312156118ac57600080fd5b60006118ba858286016116d7565b92505060206118cb858286016116ec565b9150509250929050565b600080604083850312156118e857600080fd5b60006118f6858286016116d7565b925050602061190785828601611755565b9150509250929050565b60006020828403121561192357600080fd5b600061193184828501611701565b91505092915050565b60006020828403121561194c57600080fd5b600061195a84828501611716565b91505092915050565b60006020828403121561197557600080fd5b600061198384828501611755565b91505092915050565b61199581612380565b82525050565b6119a481612392565b82525050565b60006119b582612282565b6119bf8185612298565b93506119cf818560208601612403565b6119d88161259e565b840191505092915050565b60006119ee8261228d565b6119f881856122a9565b9350611a08818560208601612403565b611a118161259e565b840191505092915050565b6000611a278261228d565b611a3181856122ba565b9350611a41818560208601612403565b80840191505092915050565b6000611a5a6032836122a9565b91507f4552433732313a207472616e7366657220746f206e6f6e20455243373231526560008301527f63656976657220696d706c656d656e74657200000000000000000000000000006020830152604082019050919050565b6000611ac0601c836122a9565b91507f4552433732313a20746f6b656e20616c7265616479206d696e746564000000006000830152602082019050919050565b6000611b006024836122a9565b91507f4552433732313a207472616e7366657220746f20746865207a65726f2061646460008301527f72657373000000000000000000000000000000000000000000000000000000006020830152604082019050919050565b6000611b666019836122a9565b91507f4552433732313a20617070726f766520746f2063616c6c6572000000000000006000830152602082019050919050565b6000611ba6602c836122a9565b91507f4552433732313a206f70657261746f7220717565727920666f72206e6f6e657860008301527f697374656e7420746f6b656e00000000000000000000000000000000000000006020830152604082019050919050565b6000611c0c6038836122a9565b91507f4552433732313a20617070726f76652063616c6c6572206973206e6f74206f7760008301527f6e6572206e6f7220617070726f76656420666f7220616c6c00000000000000006020830152604082019050919050565b6000611c72602a836122a9565b91507f4552433732313a2062616c616e636520717565727920666f7220746865207a6560008301527f726f2061646472657373000000000000000000000000000000000000000000006020830152604082019050919050565b6000611cd86029836122a9565b91507f4552433732313a206f776e657220717565727920666f72206e6f6e657869737460008301527f656e7420746f6b656e00000000000000000000000000000000000000000000006020830152604082019050919050565b6000611d3e6020836122a9565b91507f4552433732313a206d696e7420746f20746865207a65726f20616464726573736000830152602082019050919050565b6000611d7e602c836122a9565b91507f4552433732313a20617070726f76656420717565727920666f72206e6f6e657860008301527f697374656e7420746f6b656e00000000000000000000000000000000000000006020830152604082019050919050565b6000611de46029836122a9565b91507f4552433732313a207472616e73666572206f6620746f6b656e2074686174206960008301527f73206e6f74206f776e00000000000000000000000000000000000000000000006020830152604082019050919050565b6000611e4a602f836122a9565b91507f4552433732314d657461646174613a2055524920717565727920666f72206e6f60008301527f6e6578697374656e7420746f6b656e00000000000000000000000000000000006020830152604082019050919050565b6000611eb06021836122a9565b91507f4552433732313a20617070726f76616c20746f2063757272656e74206f776e6560008301527f72000000000000000000000000000000000000000000000000000000000000006020830152604082019050919050565b6000611f166031836122a9565b91507f4552433732313a207472616e736665722063616c6c6572206973206e6f74206f60008301527f776e6572206e6f7220617070726f7665640000000000000000000000000000006020830152604082019050919050565b611f78816123ea565b82525050565b6000611f8a8285611a1c565b9150611f968284611a1c565b91508190509392505050565b6000602082019050611fb7600083018461198c565b92915050565b6000608082019050611fd2600083018761198c565b611fdf602083018661198c565b611fec6040830185611f6f565b8181036060830152611ffe81846119aa565b905095945050505050565b600060208201905061201e600083018461199b565b92915050565b6000602082019050818103600083015261203e81846119e3565b905092915050565b6000602082019050818103600083015261205f81611a4d565b9050919050565b6000602082019050818103600083015261207f81611ab3565b9050919050565b6000602082019050818103600083015261209f81611af3565b9050919050565b600060208201905081810360008301526120bf81611b59565b9050919050565b600060208201905081810360008301526120df81611b99565b9050919050565b600060208201905081810360008301526120ff81611bff565b9050919050565b6000602082019050818103600083015261211f81611c65565b9050919050565b6000602082019050818103600083015261213f81611ccb565b9050919050565b6000602082019050818103600083015261215f81611d31565b9050919050565b6000602082019050818103600083015261217f81611d71565b9050919050565b6000602082019050818103600083015261219f81611dd7565b9050919050565b600060208201905081810360008301526121bf81611e3d565b9050919050565b600060208201905081810360008301526121df81611ea3565b9050919050565b600060208201905081810360008301526121ff81611f09565b9050919050565b600060208201905061221b6000830184611f6f565b92915050565b6000604051905081810181811067ffffffffffffffff821117156122485761224761256f565b5b8060405250919050565b600067ffffffffffffffff82111561226d5761226c61256f565b5b601f19601f8301169050602081019050919050565b600081519050919050565b600081519050919050565b600082825260208201905092915050565b600082825260208201905092915050565b600081905092915050565b60006122d0826123ea565b91506122db836123ea565b9250827fffffffffffffffffffffffffffffffffffffffffffffffffffffffffffffffff038211156123105761230f6124e2565b5b828201905092915050565b6000612326826123ea565b9150612331836123ea565b92508261234157612340612511565b5b828204905092915050565b6000612357826123ea565b9150612362836123ea565b925082821015612375576123746124e2565b5b828203905092915050565b600061238b826123ca565b9050919050565b60008115159050919050565b60007fffffffff0000000000000000000000000000000000000000000000000000000082169050919050565b600073ffffffffffffffffffffffffffffffffffffffff82169050919050565b6000819050919050565b82818337600083830152505050565b60005b83811015612421578082015181840152602081019050612406565b83811115612430576000848401525b50505050565b6000600282049050600182168061244e57607f821691505b6020821081141561246257612461612540565b5b50919050565b6000612473826123ea565b91507fffffffffffffffffffffffffffffffffffffffffffffffffffffffffffffffff8214156124a6576124a56124e2565b5b600182019050919050565b60006124bc826123ea565b91506124c7836123ea565b9250826124d7576124d6612511565b5b828206905092915050565b7f4e487b7100000000000000000000000000000000000000000000000000000000600052601160045260246000fd5b7f4e487b7100000000000000000000000000000000000000000000000000000000600052601260045260246000fd5b7f4e487b7100000000000000000000000000000000000000000000000000000000600052602260045260246000fd5b7f4e487b7100000000000000000000000000000000000000000000000000000000600052604160045260246000fd5b6000601f19601f8301169050919050565b6125b881612380565b81146125c357600080fd5b50565b6125cf81612392565b81146125da57600080fd5b50565b6125e68161239e565b81146125f157600080fd5b50565b6125fd816123ea565b811461260857600080fd5b5056fea26469706673582212203b37d8037c2c01b9fe28fc43ce3b5992bcf0bbd4c5ca162650ab7461cb75c1d764736f6c63430008000033",
  "immutableReferences": {},
  "source": "// SPDX-License-Identifier: MIT\npragma solidity ^0.8.0;\n\nimport \"@openzeppelin/contracts/token/ERC721/ERC721.sol\";\n\ncontract TestNFTs is ERC721 {\n  constructor() ERC721(\"TestNFTs\", \"TestNFT\") {}\n\n  uint private tokenID;\n\n  function mintTestNFT() public {\n    tokenID++;\n    _safeMint(msg.sender, tokenID);\n  }\n}\n",
  "sourcePath": "/Users/mareike/ConsenSys/blockchain-developer-bootcamp-final-project/contracts/TestNFTs.sol",
  "compiler": {
    "name": "solc",
    "version": "0.8.0+commit.c7dfd78e.Emscripten.clang"
  },
  "schemaVersion": "3.4.3",
  "updatedAt": "2021-11-05T14:01:38.743Z",
  "networkType": "ethereum",
  "devdoc": {
    "kind": "dev",
    "methods": {
      "approve(address,uint256)": {
        "details": "See {IERC721-approve}."
      },
      "balanceOf(address)": {
        "details": "See {IERC721-balanceOf}."
      },
      "getApproved(uint256)": {
        "details": "See {IERC721-getApproved}."
      },
      "isApprovedForAll(address,address)": {
        "details": "See {IERC721-isApprovedForAll}."
      },
      "name()": {
        "details": "See {IERC721Metadata-name}."
      },
      "ownerOf(uint256)": {
        "details": "See {IERC721-ownerOf}."
      },
      "safeTransferFrom(address,address,uint256)": {
        "details": "See {IERC721-safeTransferFrom}."
      },
      "safeTransferFrom(address,address,uint256,bytes)": {
        "details": "See {IERC721-safeTransferFrom}."
      },
      "setApprovalForAll(address,bool)": {
        "details": "See {IERC721-setApprovalForAll}."
      },
      "supportsInterface(bytes4)": {
        "details": "See {IERC165-supportsInterface}."
      },
      "symbol()": {
        "details": "See {IERC721Metadata-symbol}."
      },
      "tokenURI(uint256)": {
        "details": "See {IERC721Metadata-tokenURI}."
      },
      "transferFrom(address,address,uint256)": {
        "details": "See {IERC721-transferFrom}."
      }
    },
    "version": 1
  },
  "userdoc": {
    "kind": "user",
    "methods": {},
    "version": 1
  }
}